{
  "_format": "hh-sol-artifact-1",
  "contractName": "Nft",
  "sourceName": "contracts/Nft.sol",
  "abi": [
    {
      "inputs": [
        {
          "internalType": "string",
          "name": "name",
          "type": "string"
        },
        {
          "internalType": "string",
          "name": "symbol",
          "type": "string"
        },
        {
          "internalType": "address",
          "name": "initialOwner",
          "type": "address"
        }
      ],
      "stateMutability": "nonpayable",
      "type": "constructor"
    },
    {
      "inputs": [
        {
          "internalType": "address",
          "name": "sender",
          "type": "address"
        },
        {
          "internalType": "uint256",
          "name": "tokenId",
          "type": "uint256"
        },
        {
          "internalType": "address",
          "name": "owner",
          "type": "address"
        }
      ],
      "name": "ERC721IncorrectOwner",
      "type": "error"
    },
    {
      "inputs": [
        {
          "internalType": "address",
          "name": "operator",
          "type": "address"
        },
        {
          "internalType": "uint256",
          "name": "tokenId",
          "type": "uint256"
        }
      ],
      "name": "ERC721InsufficientApproval",
      "type": "error"
    },
    {
      "inputs": [
        {
          "internalType": "address",
          "name": "approver",
          "type": "address"
        }
      ],
      "name": "ERC721InvalidApprover",
      "type": "error"
    },
    {
      "inputs": [
        {
          "internalType": "address",
          "name": "operator",
          "type": "address"
        }
      ],
      "name": "ERC721InvalidOperator",
      "type": "error"
    },
    {
      "inputs": [
        {
          "internalType": "address",
          "name": "owner",
          "type": "address"
        }
      ],
      "name": "ERC721InvalidOwner",
      "type": "error"
    },
    {
      "inputs": [
        {
          "internalType": "address",
          "name": "receiver",
          "type": "address"
        }
      ],
      "name": "ERC721InvalidReceiver",
      "type": "error"
    },
    {
      "inputs": [
        {
          "internalType": "address",
          "name": "sender",
          "type": "address"
        }
      ],
      "name": "ERC721InvalidSender",
      "type": "error"
    },
    {
      "inputs": [
        {
          "internalType": "uint256",
          "name": "tokenId",
          "type": "uint256"
        }
      ],
      "name": "ERC721NonexistentToken",
      "type": "error"
    },
    {
      "inputs": [
        {
          "internalType": "address",
          "name": "owner",
          "type": "address"
        }
      ],
      "name": "OwnableInvalidOwner",
      "type": "error"
    },
    {
      "inputs": [
        {
          "internalType": "address",
          "name": "account",
          "type": "address"
        }
      ],
      "name": "OwnableUnauthorizedAccount",
      "type": "error"
    },
    {
      "anonymous": false,
      "inputs": [
        {
          "indexed": true,
          "internalType": "address",
          "name": "owner",
          "type": "address"
        },
        {
          "indexed": true,
          "internalType": "address",
          "name": "approved",
          "type": "address"
        },
        {
          "indexed": true,
          "internalType": "uint256",
          "name": "tokenId",
          "type": "uint256"
        }
      ],
      "name": "Approval",
      "type": "event"
    },
    {
      "anonymous": false,
      "inputs": [
        {
          "indexed": true,
          "internalType": "address",
          "name": "owner",
          "type": "address"
        },
        {
          "indexed": true,
          "internalType": "address",
          "name": "operator",
          "type": "address"
        },
        {
          "indexed": false,
          "internalType": "bool",
          "name": "approved",
          "type": "bool"
        }
      ],
      "name": "ApprovalForAll",
      "type": "event"
    },
    {
      "anonymous": false,
      "inputs": [
        {
          "indexed": false,
          "internalType": "uint256",
          "name": "_fromTokenId",
          "type": "uint256"
        },
        {
          "indexed": false,
          "internalType": "uint256",
          "name": "_toTokenId",
          "type": "uint256"
        }
      ],
      "name": "BatchMetadataUpdate",
      "type": "event"
    },
    {
      "anonymous": false,
      "inputs": [
        {
          "indexed": false,
          "internalType": "uint256",
          "name": "_tokenId",
          "type": "uint256"
        }
      ],
      "name": "MetadataUpdate",
      "type": "event"
    },
    {
      "anonymous": false,
      "inputs": [
        {
          "indexed": true,
          "internalType": "address",
          "name": "previousOwner",
          "type": "address"
        },
        {
          "indexed": true,
          "internalType": "address",
          "name": "newOwner",
          "type": "address"
        }
      ],
      "name": "OwnershipTransferred",
      "type": "event"
    },
    {
      "anonymous": false,
      "inputs": [
        {
          "indexed": true,
          "internalType": "address",
          "name": "from",
          "type": "address"
        },
        {
          "indexed": true,
          "internalType": "address",
          "name": "to",
          "type": "address"
        },
        {
          "indexed": true,
          "internalType": "uint256",
          "name": "tokenId",
          "type": "uint256"
        }
      ],
      "name": "Transfer",
      "type": "event"
    },
    {
      "inputs": [
        {
          "internalType": "address",
          "name": "to",
          "type": "address"
        },
        {
          "internalType": "uint256",
          "name": "tokenId",
          "type": "uint256"
        }
      ],
      "name": "approve",
      "outputs": [],
      "stateMutability": "nonpayable",
      "type": "function"
    },
    {
      "inputs": [
        {
          "internalType": "address",
          "name": "owner",
          "type": "address"
        }
      ],
      "name": "balanceOf",
      "outputs": [
        {
          "internalType": "uint256",
          "name": "",
          "type": "uint256"
        }
      ],
      "stateMutability": "view",
      "type": "function"
    },
    {
      "inputs": [
        {
          "internalType": "uint256",
          "name": "tokenId",
          "type": "uint256"
        }
      ],
      "name": "getApproved",
      "outputs": [
        {
          "internalType": "address",
          "name": "",
          "type": "address"
        }
      ],
      "stateMutability": "view",
      "type": "function"
    },
    {
      "inputs": [
        {
          "internalType": "address",
          "name": "owner",
          "type": "address"
        },
        {
          "internalType": "address",
          "name": "operator",
          "type": "address"
        }
      ],
      "name": "isApprovedForAll",
      "outputs": [
        {
          "internalType": "bool",
          "name": "",
          "type": "bool"
        }
      ],
      "stateMutability": "view",
      "type": "function"
    },
    {
      "inputs": [
        {
          "internalType": "address",
          "name": "_to",
          "type": "address"
        },
        {
          "internalType": "uint256",
          "name": "tokenId",
          "type": "uint256"
        },
        {
          "internalType": "string",
          "name": "_uri",
          "type": "string"
        }
      ],
      "name": "mint",
      "outputs": [],
      "stateMutability": "nonpayable",
      "type": "function"
    },
    {
      "inputs": [],
      "name": "name",
      "outputs": [
        {
          "internalType": "string",
          "name": "",
          "type": "string"
        }
      ],
      "stateMutability": "view",
      "type": "function"
    },
    {
      "inputs": [
        {
          "internalType": "address",
          "name": "owner",
          "type": "address"
        }
      ],
      "name": "nftsMinted",
      "outputs": [
        {
          "internalType": "uint256",
          "name": "",
          "type": "uint256"
        }
      ],
      "stateMutability": "view",
      "type": "function"
    },
    {
      "inputs": [
        {
          "internalType": "address",
          "name": "owner",
          "type": "address"
        }
      ],
      "name": "nftsOwned",
      "outputs": [
        {
          "internalType": "uint256",
          "name": "",
          "type": "uint256"
        }
      ],
      "stateMutability": "view",
      "type": "function"
    },
    {
      "inputs": [],
      "name": "owner",
      "outputs": [
        {
          "internalType": "address",
          "name": "",
          "type": "address"
        }
      ],
      "stateMutability": "view",
      "type": "function"
    },
    {
      "inputs": [
        {
          "internalType": "uint256",
          "name": "tokenId",
          "type": "uint256"
        }
      ],
      "name": "ownerOf",
      "outputs": [
        {
          "internalType": "address",
          "name": "",
          "type": "address"
        }
      ],
      "stateMutability": "view",
      "type": "function"
    },
    {
      "inputs": [],
      "name": "renounceOwnership",
      "outputs": [],
      "stateMutability": "nonpayable",
      "type": "function"
    },
    {
      "inputs": [
        {
          "internalType": "address",
          "name": "from",
          "type": "address"
        },
        {
          "internalType": "address",
          "name": "to",
          "type": "address"
        },
        {
          "internalType": "uint256",
          "name": "tokenId",
          "type": "uint256"
        }
      ],
      "name": "safeTransferFrom",
      "outputs": [],
      "stateMutability": "nonpayable",
      "type": "function"
    },
    {
      "inputs": [
        {
          "internalType": "address",
          "name": "from",
          "type": "address"
        },
        {
          "internalType": "address",
          "name": "to",
          "type": "address"
        },
        {
          "internalType": "uint256",
          "name": "tokenId",
          "type": "uint256"
        },
        {
          "internalType": "bytes",
          "name": "data",
          "type": "bytes"
        }
      ],
      "name": "safeTransferFrom",
      "outputs": [],
      "stateMutability": "nonpayable",
      "type": "function"
    },
    {
      "inputs": [
        {
          "internalType": "address",
          "name": "operator",
          "type": "address"
        },
        {
          "internalType": "bool",
          "name": "approved",
          "type": "bool"
        }
      ],
      "name": "setApprovalForAll",
      "outputs": [],
      "stateMutability": "nonpayable",
      "type": "function"
    },
    {
      "inputs": [
        {
          "internalType": "bytes4",
          "name": "interfaceId",
          "type": "bytes4"
        }
      ],
      "name": "supportsInterface",
      "outputs": [
        {
          "internalType": "bool",
          "name": "",
          "type": "bool"
        }
      ],
      "stateMutability": "view",
      "type": "function"
    },
    {
      "inputs": [],
      "name": "symbol",
      "outputs": [
        {
          "internalType": "string",
          "name": "",
          "type": "string"
        }
      ],
      "stateMutability": "view",
      "type": "function"
    },
    {
      "inputs": [
        {
          "internalType": "address",
          "name": "_owner",
          "type": "address"
        },
        {
          "internalType": "uint256",
          "name": "_index",
          "type": "uint256"
        }
      ],
      "name": "tokenOfOwnerByIndex",
      "outputs": [
        {
          "internalType": "uint256",
          "name": "",
          "type": "uint256"
        }
      ],
      "stateMutability": "view",
      "type": "function"
    },
    {
      "inputs": [
        {
          "internalType": "uint256",
          "name": "tokenId",
          "type": "uint256"
        }
      ],
      "name": "tokenURI",
      "outputs": [
        {
          "internalType": "string",
          "name": "",
          "type": "string"
        }
      ],
      "stateMutability": "view",
      "type": "function"
    },
    {
      "inputs": [
        {
          "internalType": "address",
          "name": "from",
          "type": "address"
        },
        {
          "internalType": "address",
          "name": "to",
          "type": "address"
        },
        {
          "internalType": "uint256",
          "name": "tokenId",
          "type": "uint256"
        }
      ],
      "name": "transferFrom",
      "outputs": [],
      "stateMutability": "nonpayable",
      "type": "function"
    },
    {
      "inputs": [
        {
          "internalType": "address",
          "name": "newOwner",
          "type": "address"
        }
      ],
      "name": "transferOwnership",
      "outputs": [],
      "stateMutability": "nonpayable",
      "type": "function"
    }
  ],
  "bytecode": "0x60806040523480156200001157600080fd5b50604051620030ef380380620030ef8339818101604052810190620000379190620003ae565b80838381600090816200004b919062000693565b5080600190816200005d919062000693565b505050600073ffffffffffffffffffffffffffffffffffffffff168173ffffffffffffffffffffffffffffffffffffffff1603620000d55760006040517f1e4fbdf7000000000000000000000000000000000000000000000000000000008152600401620000cc91906200078b565b60405180910390fd5b620000e681620000f060201b60201c565b50505050620007a8565b6000600760009054906101000a900473ffffffffffffffffffffffffffffffffffffffff16905081600760006101000a81548173ffffffffffffffffffffffffffffffffffffffff021916908373ffffffffffffffffffffffffffffffffffffffff1602179055508173ffffffffffffffffffffffffffffffffffffffff168173ffffffffffffffffffffffffffffffffffffffff167f8be0079c531659141344cd1fd0a4f28419497f9722a3daafe3b4186f6b6457e060405160405180910390a35050565b6000604051905090565b600080fd5b600080fd5b600080fd5b600080fd5b6000601f19601f8301169050919050565b7f4e487b7100000000000000000000000000000000000000000000000000000000600052604160045260246000fd5b6200021f82620001d4565b810181811067ffffffffffffffff82111715620002415762000240620001e5565b5b80604052505050565b600062000256620001b6565b905062000264828262000214565b919050565b600067ffffffffffffffff821115620002875762000286620001e5565b5b6200029282620001d4565b9050602081019050919050565b60005b83811015620002bf578082015181840152602081019050620002a2565b60008484015250505050565b6000620002e2620002dc8462000269565b6200024a565b905082815260208101848484011115620003015762000300620001cf565b5b6200030e8482856200029f565b509392505050565b600082601f8301126200032e576200032d620001ca565b5b815162000340848260208601620002cb565b91505092915050565b600073ffffffffffffffffffffffffffffffffffffffff82169050919050565b6000620003768262000349565b9050919050565b620003888162000369565b81146200039457600080fd5b50565b600081519050620003a8816200037d565b92915050565b600080600060608486031215620003ca57620003c9620001c0565b5b600084015167ffffffffffffffff811115620003eb57620003ea620001c5565b5b620003f98682870162000316565b935050602084015167ffffffffffffffff8111156200041d576200041c620001c5565b5b6200042b8682870162000316565b92505060406200043e8682870162000397565b9150509250925092565b600081519050919050565b7f4e487b7100000000000000000000000000000000000000000000000000000000600052602260045260246000fd5b600060028204905060018216806200049b57607f821691505b602082108103620004b157620004b062000453565b5b50919050565b60008190508160005260206000209050919050565b60006020601f8301049050919050565b600082821b905092915050565b6000600883026200051b7fffffffffffffffffffffffffffffffffffffffffffffffffffffffffffffffff82620004dc565b620005278683620004dc565b95508019841693508086168417925050509392505050565b6000819050919050565b6000819050919050565b6000620005746200056e62000568846200053f565b62000549565b6200053f565b9050919050565b6000819050919050565b620005908362000553565b620005a86200059f826200057b565b848454620004e9565b825550505050565b600090565b620005bf620005b0565b620005cc81848462000585565b505050565b5b81811015620005f457620005e8600082620005b5565b600181019050620005d2565b5050565b601f82111562000643576200060d81620004b7565b6200061884620004cc565b8101602085101562000628578190505b620006406200063785620004cc565b830182620005d1565b50505b505050565b600082821c905092915050565b6000620006686000198460080262000648565b1980831691505092915050565b600062000683838362000655565b9150826002028217905092915050565b6200069e8262000448565b67ffffffffffffffff811115620006ba57620006b9620001e5565b5b620006c6825462000482565b620006d3828285620005f8565b600060209050601f8311600181146200070b5760008415620006f6578287015190505b62000702858262000675565b86555062000772565b601f1984166200071b86620004b7565b60005b8281101562000745578489015182556001820191506020850194506020810190506200071e565b8683101562000765578489015162000761601f89168262000655565b8355505b6001600288020188555050505b505050505050565b620007858162000369565b82525050565b6000602082019050620007a260008301846200077a565b92915050565b61293780620007b86000396000f3fe608060405234801561001057600080fd5b506004361061012c5760003560e01c8063715018a6116100ad578063b88d4fde11610071578063b88d4fde14610355578063c87b56dd14610371578063d3fc9864146103a1578063e985e9c5146103bd578063f2fde38b146103ed5761012c565b8063715018a6146102c35780638baafe13146102cd5780638da5cb5b146102fd57806395d89b411461031b578063a22cb465146103395761012c565b80632f745c59116100f45780632f745c59146101e757806341de982e1461021757806342842e0e146102475780636352211e1461026357806370a08231146102935761012c565b806301ffc9a71461013157806306fdde0314610161578063081812fc1461017f578063095ea7b3146101af57806323b872dd146101cb575b600080fd5b61014b60048036038101906101469190611d84565b610409565b6040516101589190611dcc565b60405180910390f35b61016961046a565b6040516101769190611e77565b60405180910390f35b61019960048036038101906101949190611ecf565b6104fc565b6040516101a69190611f3d565b60405180910390f35b6101c960048036038101906101c49190611f84565b610518565b005b6101e560048036038101906101e09190611fc4565b61052e565b005b61020160048036038101906101fc9190611f84565b610630565b60405161020e9190612026565b60405180910390f35b610231600480360381019061022c9190612041565b61068e565b60405161023e9190612026565b60405180910390f35b610261600480360381019061025c9190611fc4565b6106d7565b005b61027d60048036038101906102789190611ecf565b6106f7565b60405161028a9190611f3d565b60405180910390f35b6102ad60048036038101906102a89190612041565b610709565b6040516102ba9190612026565b60405180910390f35b6102cb6107c3565b005b6102e760048036038101906102e29190612041565b6107d7565b6040516102f49190612026565b60405180910390f35b610305610820565b6040516103129190611f3d565b60405180910390f35b61032361084a565b6040516103309190611e77565b60405180910390f35b610353600480360381019061034e919061209a565b6108dc565b005b61036f600480360381019061036a919061220f565b6108f2565b005b61038b60048036038101906103869190611ecf565b61090f565b6040516103989190611e77565b60405180910390f35b6103bb60048036038101906103b691906122f2565b610a22565b005b6103d760048036038101906103d29190612366565b610bc9565b6040516103e49190611dcc565b60405180910390f35b61040760048036038101906104029190612041565b610c5d565b005b6000634906490660e01b7bffffffffffffffffffffffffffffffffffffffffffffffffffffffff1916827bffffffffffffffffffffffffffffffffffffffffffffffffffffffff19161480610463575061046282610ce3565b5b9050919050565b606060008054610479906123d5565b80601f01602080910402602001604051908101604052809291908181526020018280546104a5906123d5565b80156104f25780601f106104c7576101008083540402835291602001916104f2565b820191906000526020600020905b8154815290600101906020018083116104d557829003601f168201915b5050505050905090565b600061050782610dc5565b5061051182610e4d565b9050919050565b61052a8282610525610e8a565b610e92565b5050565b600073ffffffffffffffffffffffffffffffffffffffff168273ffffffffffffffffffffffffffffffffffffffff16036105a05760006040517f64a0ae920000000000000000000000000000000000000000000000000000000081526004016105979190611f3d565b60405180910390fd5b60006105b483836105af610e8a565b610ea4565b90508373ffffffffffffffffffffffffffffffffffffffff168173ffffffffffffffffffffffffffffffffffffffff161461062a578382826040517f64283d7b00000000000000000000000000000000000000000000000000000000815260040161062193929190612406565b60405180910390fd5b50505050565b6000600a60008473ffffffffffffffffffffffffffffffffffffffff1673ffffffffffffffffffffffffffffffffffffffff168152602001908152602001600020600083815260200190815260200160002060000154905092915050565b6000600860008373ffffffffffffffffffffffffffffffffffffffff1673ffffffffffffffffffffffffffffffffffffffff168152602001908152602001600020549050919050565b6106f2838383604051806020016040528060008152506108f2565b505050565b600061070282610dc5565b9050919050565b60008073ffffffffffffffffffffffffffffffffffffffff168273ffffffffffffffffffffffffffffffffffffffff160361077c5760006040517f89c62b640000000000000000000000000000000000000000000000000000000081526004016107739190611f3d565b60405180910390fd5b600360008373ffffffffffffffffffffffffffffffffffffffff1673ffffffffffffffffffffffffffffffffffffffff168152602001908152602001600020549050919050565b6107cb6110be565b6107d56000611145565b565b6000600960008373ffffffffffffffffffffffffffffffffffffffff1673ffffffffffffffffffffffffffffffffffffffff168152602001908152602001600020549050919050565b6000600760009054906101000a900473ffffffffffffffffffffffffffffffffffffffff16905090565b606060018054610859906123d5565b80601f0160208091040260200160405190810160405280929190818152602001828054610885906123d5565b80156108d25780601f106108a7576101008083540402835291602001916108d2565b820191906000526020600020905b8154815290600101906020018083116108b557829003601f168201915b5050505050905090565b6108ee6108e7610e8a565b838361120b565b5050565b6108fd84848461052e565b6109098484848461137a565b50505050565b606061091a82610dc5565b50600060066000848152602001908152602001600020805461093b906123d5565b80601f0160208091040260200160405190810160405280929190818152602001828054610967906123d5565b80156109b45780601f10610989576101008083540402835291602001916109b4565b820191906000526020600020905b81548152906001019060200180831161099757829003601f168201915b5050505050905060006109c5611531565b905060008151036109da578192505050610a1d565b600082511115610a0f5780826040516020016109f7929190612479565b60405160208183030381529060405292505050610a1d565b610a1884611548565b925050505b919050565b610a2a6110be565b610a3484846115b1565b610a828383838080601f016020809104026020016040519081016040528093929190818152602001838380828437600081840152601f19601f820116905080830192505050505050506116aa565b60005b610a8e33610709565b811015610b1457604051806020016040528085815250600a60008773ffffffffffffffffffffffffffffffffffffffff1673ffffffffffffffffffffffffffffffffffffffff1681526020019081526020016000206000838152602001908152602001600020600082015181600001559050508080610b0c906124cc565b915050610a85565b506001600860008673ffffffffffffffffffffffffffffffffffffffff1673ffffffffffffffffffffffffffffffffffffffff1681526020019081526020016000206000828254610b659190612514565b925050819055506001600960008673ffffffffffffffffffffffffffffffffffffffff1673ffffffffffffffffffffffffffffffffffffffff1681526020019081526020016000206000828254610bbc9190612514565b9250508190555050505050565b6000600560008473ffffffffffffffffffffffffffffffffffffffff1673ffffffffffffffffffffffffffffffffffffffff16815260200190815260200160002060008373ffffffffffffffffffffffffffffffffffffffff1673ffffffffffffffffffffffffffffffffffffffff16815260200190815260200160002060009054906101000a900460ff16905092915050565b610c656110be565b600073ffffffffffffffffffffffffffffffffffffffff168173ffffffffffffffffffffffffffffffffffffffff1603610cd75760006040517f1e4fbdf7000000000000000000000000000000000000000000000000000000008152600401610cce9190611f3d565b60405180910390fd5b610ce081611145565b50565b60007f80ac58cd000000000000000000000000000000000000000000000000000000007bffffffffffffffffffffffffffffffffffffffffffffffffffffffff1916827bffffffffffffffffffffffffffffffffffffffffffffffffffffffff19161480610dae57507f5b5e139f000000000000000000000000000000000000000000000000000000007bffffffffffffffffffffffffffffffffffffffffffffffffffffffff1916827bffffffffffffffffffffffffffffffffffffffffffffffffffffffff1916145b80610dbe5750610dbd82611706565b5b9050919050565b600080610dd183611770565b9050600073ffffffffffffffffffffffffffffffffffffffff168173ffffffffffffffffffffffffffffffffffffffff1603610e4457826040517f7e273289000000000000000000000000000000000000000000000000000000008152600401610e3b9190612026565b60405180910390fd5b80915050919050565b60006004600083815260200190815260200160002060009054906101000a900473ffffffffffffffffffffffffffffffffffffffff169050919050565b600033905090565b610e9f83838360016117ad565b505050565b600080610eb084611770565b9050600073ffffffffffffffffffffffffffffffffffffffff168373ffffffffffffffffffffffffffffffffffffffff1614610ef257610ef1818486611972565b5b600073ffffffffffffffffffffffffffffffffffffffff168173ffffffffffffffffffffffffffffffffffffffff1614610f8357610f346000856000806117ad565b6001600360008373ffffffffffffffffffffffffffffffffffffffff1673ffffffffffffffffffffffffffffffffffffffff168152602001908152602001600020600082825403925050819055505b600073ffffffffffffffffffffffffffffffffffffffff168573ffffffffffffffffffffffffffffffffffffffff1614611006576001600360008773ffffffffffffffffffffffffffffffffffffffff1673ffffffffffffffffffffffffffffffffffffffff168152602001908152602001600020600082825401925050819055505b846002600086815260200190815260200160002060006101000a81548173ffffffffffffffffffffffffffffffffffffffff021916908373ffffffffffffffffffffffffffffffffffffffff160217905550838573ffffffffffffffffffffffffffffffffffffffff168273ffffffffffffffffffffffffffffffffffffffff167fddf252ad1be2c89b69c2b068fc378daa952ba7f163c4a11628f55a4df523b3ef60405160405180910390a4809150509392505050565b6110c6610e8a565b73ffffffffffffffffffffffffffffffffffffffff166110e4610820565b73ffffffffffffffffffffffffffffffffffffffff161461114357611107610e8a565b6040517f118cdaa700000000000000000000000000000000000000000000000000000000815260040161113a9190611f3d565b60405180910390fd5b565b6000600760009054906101000a900473ffffffffffffffffffffffffffffffffffffffff16905081600760006101000a81548173ffffffffffffffffffffffffffffffffffffffff021916908373ffffffffffffffffffffffffffffffffffffffff1602179055508173ffffffffffffffffffffffffffffffffffffffff168173ffffffffffffffffffffffffffffffffffffffff167f8be0079c531659141344cd1fd0a4f28419497f9722a3daafe3b4186f6b6457e060405160405180910390a35050565b600073ffffffffffffffffffffffffffffffffffffffff168273ffffffffffffffffffffffffffffffffffffffff160361127c57816040517f5b08ba180000000000000000000000000000000000000000000000000000000081526004016112739190611f3d565b60405180910390fd5b80600560008573ffffffffffffffffffffffffffffffffffffffff1673ffffffffffffffffffffffffffffffffffffffff16815260200190815260200160002060008473ffffffffffffffffffffffffffffffffffffffff1673ffffffffffffffffffffffffffffffffffffffff16815260200190815260200160002060006101000a81548160ff0219169083151502179055508173ffffffffffffffffffffffffffffffffffffffff168373ffffffffffffffffffffffffffffffffffffffff167f17307eab39ab6107e8899845ad3d59bd9653f200f220920489ca2b5937696c318360405161136d9190611dcc565b60405180910390a3505050565b60008373ffffffffffffffffffffffffffffffffffffffff163b111561152b578273ffffffffffffffffffffffffffffffffffffffff1663150b7a026113be610e8a565b8685856040518563ffffffff1660e01b81526004016113e0949392919061259d565b6020604051808303816000875af192505050801561141c57506040513d601f19601f8201168201806040525081019061141991906125fe565b60015b6114a0573d806000811461144c576040519150601f19603f3d011682016040523d82523d6000602084013e611451565b606091505b50600081510361149857836040517f64a0ae9200000000000000000000000000000000000000000000000000000000815260040161148f9190611f3d565b60405180910390fd5b805181602001fd5b63150b7a0260e01b7bffffffffffffffffffffffffffffffffffffffffffffffffffffffff1916817bffffffffffffffffffffffffffffffffffffffffffffffffffffffff19161461152957836040517f64a0ae920000000000000000000000000000000000000000000000000000000081526004016115209190611f3d565b60405180910390fd5b505b50505050565b606060405180602001604052806000815250905090565b606061155382610dc5565b50600061155e611531565b9050600081511161157e57604051806020016040528060008152506115a9565b8061158884611a36565b604051602001611599929190612479565b6040516020818303038152906040525b915050919050565b600073ffffffffffffffffffffffffffffffffffffffff168273ffffffffffffffffffffffffffffffffffffffff16036116235760006040517f64a0ae9200000000000000000000000000000000000000000000000000000000815260040161161a9190611f3d565b60405180910390fd5b600061163183836000610ea4565b9050600073ffffffffffffffffffffffffffffffffffffffff168173ffffffffffffffffffffffffffffffffffffffff16146116a55760006040517f73c6ac6e00000000000000000000000000000000000000000000000000000000815260040161169c9190611f3d565b60405180910390fd5b505050565b806006600084815260200190815260200160002090816116ca91906127d7565b507ff8e1a15aba9398e019f0b49df1a4fde98ee17ae345cb5f6b5e2c27f5033e8ce7826040516116fa9190612026565b60405180910390a15050565b60007f01ffc9a7000000000000000000000000000000000000000000000000000000007bffffffffffffffffffffffffffffffffffffffffffffffffffffffff1916827bffffffffffffffffffffffffffffffffffffffffffffffffffffffff1916149050919050565b60006002600083815260200190815260200160002060009054906101000a900473ffffffffffffffffffffffffffffffffffffffff169050919050565b80806117e65750600073ffffffffffffffffffffffffffffffffffffffff168273ffffffffffffffffffffffffffffffffffffffff1614155b1561191a5760006117f684610dc5565b9050600073ffffffffffffffffffffffffffffffffffffffff168373ffffffffffffffffffffffffffffffffffffffff161415801561186157508273ffffffffffffffffffffffffffffffffffffffff168173ffffffffffffffffffffffffffffffffffffffff1614155b801561187457506118728184610bc9565b155b156118b657826040517fa9fbf51f0000000000000000000000000000000000000000000000000000000081526004016118ad9190611f3d565b60405180910390fd5b811561191857838573ffffffffffffffffffffffffffffffffffffffff168273ffffffffffffffffffffffffffffffffffffffff167f8c5be1e5ebec7d5bd14f71427d1e84f3dd0314c0f7b2291e5b200ac8c7c3b92560405160405180910390a45b505b836004600085815260200190815260200160002060006101000a81548173ffffffffffffffffffffffffffffffffffffffff021916908373ffffffffffffffffffffffffffffffffffffffff16021790555050505050565b61197d838383611b04565b611a3157600073ffffffffffffffffffffffffffffffffffffffff168373ffffffffffffffffffffffffffffffffffffffff16036119f257806040517f7e2732890000000000000000000000000000000000000000000000000000000081526004016119e99190612026565b60405180910390fd5b81816040517f177e802f000000000000000000000000000000000000000000000000000000008152600401611a289291906128a9565b60405180910390fd5b505050565b606060006001611a4584611bc5565b01905060008167ffffffffffffffff811115611a6457611a636120e4565b5b6040519080825280601f01601f191660200182016040528015611a965781602001600182028036833780820191505090505b509050600082602001820190505b600115611af9578080600190039150507f3031323334353637383961626364656600000000000000000000000000000000600a86061a8153600a8581611aed57611aec6128d2565b5b04945060008503611aa4575b819350505050919050565b60008073ffffffffffffffffffffffffffffffffffffffff168373ffffffffffffffffffffffffffffffffffffffff1614158015611bbc57508273ffffffffffffffffffffffffffffffffffffffff168473ffffffffffffffffffffffffffffffffffffffff161480611b7d5750611b7c8484610bc9565b5b80611bbb57508273ffffffffffffffffffffffffffffffffffffffff16611ba383610e4d565b73ffffffffffffffffffffffffffffffffffffffff16145b5b90509392505050565b600080600090507a184f03e93ff9f4daa797ed6e38ed64bf6a1f0100000000000000008310611c23577a184f03e93ff9f4daa797ed6e38ed64bf6a1f0100000000000000008381611c1957611c186128d2565b5b0492506040810190505b6d04ee2d6d415b85acef81000000008310611c60576d04ee2d6d415b85acef81000000008381611c5657611c556128d2565b5b0492506020810190505b662386f26fc100008310611c8f57662386f26fc100008381611c8557611c846128d2565b5b0492506010810190505b6305f5e1008310611cb8576305f5e1008381611cae57611cad6128d2565b5b0492506008810190505b6127108310611cdd576127108381611cd357611cd26128d2565b5b0492506004810190505b60648310611d005760648381611cf657611cf56128d2565b5b0492506002810190505b600a8310611d0f576001810190505b80915050919050565b6000604051905090565b600080fd5b600080fd5b60007fffffffff0000000000000000000000000000000000000000000000000000000082169050919050565b611d6181611d2c565b8114611d6c57600080fd5b50565b600081359050611d7e81611d58565b92915050565b600060208284031215611d9a57611d99611d22565b5b6000611da884828501611d6f565b91505092915050565b60008115159050919050565b611dc681611db1565b82525050565b6000602082019050611de16000830184611dbd565b92915050565b600081519050919050565b600082825260208201905092915050565b60005b83811015611e21578082015181840152602081019050611e06565b60008484015250505050565b6000601f19601f8301169050919050565b6000611e4982611de7565b611e538185611df2565b9350611e63818560208601611e03565b611e6c81611e2d565b840191505092915050565b60006020820190508181036000830152611e918184611e3e565b905092915050565b6000819050919050565b611eac81611e99565b8114611eb757600080fd5b50565b600081359050611ec981611ea3565b92915050565b600060208284031215611ee557611ee4611d22565b5b6000611ef384828501611eba565b91505092915050565b600073ffffffffffffffffffffffffffffffffffffffff82169050919050565b6000611f2782611efc565b9050919050565b611f3781611f1c565b82525050565b6000602082019050611f526000830184611f2e565b92915050565b611f6181611f1c565b8114611f6c57600080fd5b50565b600081359050611f7e81611f58565b92915050565b60008060408385031215611f9b57611f9a611d22565b5b6000611fa985828601611f6f565b9250506020611fba85828601611eba565b9150509250929050565b600080600060608486031215611fdd57611fdc611d22565b5b6000611feb86828701611f6f565b9350506020611ffc86828701611f6f565b925050604061200d86828701611eba565b9150509250925092565b61202081611e99565b82525050565b600060208201905061203b6000830184612017565b92915050565b60006020828403121561205757612056611d22565b5b600061206584828501611f6f565b91505092915050565b61207781611db1565b811461208257600080fd5b50565b6000813590506120948161206e565b92915050565b600080604083850312156120b1576120b0611d22565b5b60006120bf85828601611f6f565b92505060206120d085828601612085565b9150509250929050565b600080fd5b600080fd5b7f4e487b7100000000000000000000000000000000000000000000000000000000600052604160045260246000fd5b61211c82611e2d565b810181811067ffffffffffffffff8211171561213b5761213a6120e4565b5b80604052505050565b600061214e611d18565b905061215a8282612113565b919050565b600067ffffffffffffffff82111561217a576121796120e4565b5b61218382611e2d565b9050602081019050919050565b82818337600083830152505050565b60006121b26121ad8461215f565b612144565b9050828152602081018484840111156121ce576121cd6120df565b5b6121d9848285612190565b509392505050565b600082601f8301126121f6576121f56120da565b5b813561220684826020860161219f565b91505092915050565b6000806000806080858703121561222957612228611d22565b5b600061223787828801611f6f565b945050602061224887828801611f6f565b935050604061225987828801611eba565b925050606085013567ffffffffffffffff81111561227a57612279611d27565b5b612286878288016121e1565b91505092959194509250565b600080fd5b600080fd5b60008083601f8401126122b2576122b16120da565b5b8235905067ffffffffffffffff8111156122cf576122ce612292565b5b6020830191508360018202830111156122eb576122ea612297565b5b9250929050565b6000806000806060858703121561230c5761230b611d22565b5b600061231a87828801611f6f565b945050602061232b87828801611eba565b935050604085013567ffffffffffffffff81111561234c5761234b611d27565b5b6123588782880161229c565b925092505092959194509250565b6000806040838503121561237d5761237c611d22565b5b600061238b85828601611f6f565b925050602061239c85828601611f6f565b9150509250929050565b7f4e487b7100000000000000000000000000000000000000000000000000000000600052602260045260246000fd5b600060028204905060018216806123ed57607f821691505b602082108103612400576123ff6123a6565b5b50919050565b600060608201905061241b6000830186611f2e565b6124286020830185612017565b6124356040830184611f2e565b949350505050565b600081905092915050565b600061245382611de7565b61245d818561243d565b935061246d818560208601611e03565b80840191505092915050565b60006124858285612448565b91506124918284612448565b91508190509392505050565b7f4e487b7100000000000000000000000000000000000000000000000000000000600052601160045260246000fd5b60006124d782611e99565b91507fffffffffffffffffffffffffffffffffffffffffffffffffffffffffffffffff82036125095761250861249d565b5b600182019050919050565b600061251f82611e99565b915061252a83611e99565b92508282019050808211156125425761254161249d565b5b92915050565b600081519050919050565b600082825260208201905092915050565b600061256f82612548565b6125798185612553565b9350612589818560208601611e03565b61259281611e2d565b840191505092915050565b60006080820190506125b26000830187611f2e565b6125bf6020830186611f2e565b6125cc6040830185612017565b81810360608301526125de8184612564565b905095945050505050565b6000815190506125f881611d58565b92915050565b60006020828403121561261457612613611d22565b5b6000612622848285016125e9565b91505092915050565b60008190508160005260206000209050919050565b60006020601f8301049050919050565b600082821b905092915050565b60006008830261268d7fffffffffffffffffffffffffffffffffffffffffffffffffffffffffffffffff82612650565b6126978683612650565b95508019841693508086168417925050509392505050565b6000819050919050565b60006126d46126cf6126ca84611e99565b6126af565b611e99565b9050919050565b6000819050919050565b6126ee836126b9565b6127026126fa826126db565b84845461265d565b825550505050565b600090565b61271761270a565b6127228184846126e5565b505050565b5b818110156127465761273b60008261270f565b600181019050612728565b5050565b601f82111561278b5761275c8161262b565b61276584612640565b81016020851015612774578190505b61278861278085612640565b830182612727565b50505b505050565b600082821c905092915050565b60006127ae60001984600802612790565b1980831691505092915050565b60006127c7838361279d565b9150826002028217905092915050565b6127e082611de7565b67ffffffffffffffff8111156127f9576127f86120e4565b5b61280382546123d5565b61280e82828561274a565b600060209050601f831160018114612841576000841561282f578287015190505b61283985826127bb565b8655506128a1565b601f19841661284f8661262b565b60005b8281101561287757848901518255600182019150602085019450602081019050612852565b868310156128945784890151612890601f89168261279d565b8355505b6001600288020188555050505b505050505050565b60006040820190506128be6000830185611f2e565b6128cb6020830184612017565b9392505050565b7f4e487b7100000000000000000000000000000000000000000000000000000000600052601260045260246000fdfea26469706673582212201dbc14adf287687e274ea68f6fae55a0101450a5b5e41a350a06d8e98d5bd9e564736f6c63430008140033",
  "linkReferences": {},
  "deployedLinkReferences": {}
}