{
  "_format": "hh-sol-artifact-1",
  "contractName": "FractionalNft",
  "sourceName": "contracts/fractionalNft.sol",
  "abi": [
    {
      "inputs": [
        {
          "internalType": "address",
          "name": "initialOwner",
          "type": "address"
        }
      ],
      "stateMutability": "nonpayable",
      "type": "constructor"
    },
    {
      "inputs": [
        {
          "internalType": "address",
          "name": "spender",
          "type": "address"
        },
        {
          "internalType": "uint256",
          "name": "allowance",
          "type": "uint256"
        },
        {
          "internalType": "uint256",
          "name": "needed",
          "type": "uint256"
        }
      ],
      "name": "ERC20InsufficientAllowance",
      "type": "error"
    },
    {
      "inputs": [
        {
          "internalType": "address",
          "name": "sender",
          "type": "address"
        },
        {
          "internalType": "uint256",
          "name": "balance",
          "type": "uint256"
        },
        {
          "internalType": "uint256",
          "name": "needed",
          "type": "uint256"
        }
      ],
      "name": "ERC20InsufficientBalance",
      "type": "error"
    },
    {
      "inputs": [
        {
          "internalType": "address",
          "name": "approver",
          "type": "address"
        }
      ],
      "name": "ERC20InvalidApprover",
      "type": "error"
    },
    {
      "inputs": [
        {
          "internalType": "address",
          "name": "receiver",
          "type": "address"
        }
      ],
      "name": "ERC20InvalidReceiver",
      "type": "error"
    },
    {
      "inputs": [
        {
          "internalType": "address",
          "name": "sender",
          "type": "address"
        }
      ],
      "name": "ERC20InvalidSender",
      "type": "error"
    },
    {
      "inputs": [
        {
          "internalType": "address",
          "name": "spender",
          "type": "address"
        }
      ],
      "name": "ERC20InvalidSpender",
      "type": "error"
    },
    {
      "inputs": [
        {
          "internalType": "address",
          "name": "owner",
          "type": "address"
        }
      ],
      "name": "OwnableInvalidOwner",
      "type": "error"
    },
    {
      "inputs": [
        {
          "internalType": "address",
          "name": "account",
          "type": "address"
        }
      ],
      "name": "OwnableUnauthorizedAccount",
      "type": "error"
    },
    {
      "anonymous": false,
      "inputs": [
        {
          "indexed": true,
          "internalType": "address",
          "name": "owner",
          "type": "address"
        },
        {
          "indexed": true,
          "internalType": "address",
          "name": "spender",
          "type": "address"
        },
        {
          "indexed": false,
          "internalType": "uint256",
          "name": "value",
          "type": "uint256"
        }
      ],
      "name": "Approval",
      "type": "event"
    },
    {
      "anonymous": false,
      "inputs": [
        {
          "indexed": false,
          "internalType": "address",
          "name": "collection",
          "type": "address"
        },
        {
          "indexed": false,
          "internalType": "uint16",
          "name": "tokenId",
          "type": "uint16"
        },
        {
          "indexed": false,
          "internalType": "uint256",
          "name": "shares",
          "type": "uint256"
        }
      ],
      "name": "Initialized",
      "type": "event"
    },
    {
      "anonymous": false,
      "inputs": [
        {
          "indexed": true,
          "internalType": "address",
          "name": "previousOwner",
          "type": "address"
        },
        {
          "indexed": true,
          "internalType": "address",
          "name": "newOwner",
          "type": "address"
        }
      ],
      "name": "OwnershipTransferred",
      "type": "event"
    },
    {
      "anonymous": false,
      "inputs": [
        {
          "indexed": false,
          "internalType": "address",
          "name": "collection",
          "type": "address"
        },
        {
          "indexed": false,
          "internalType": "uint16",
          "name": "tokenId",
          "type": "uint16"
        },
        {
          "indexed": false,
          "internalType": "address",
          "name": "buyer",
          "type": "address"
        }
      ],
      "name": "Purchased",
      "type": "event"
    },
    {
      "anonymous": false,
      "inputs": [
        {
          "indexed": false,
          "internalType": "address",
          "name": "collection",
          "type": "address"
        },
        {
          "indexed": false,
          "internalType": "uint16",
          "name": "tokenId",
          "type": "uint16"
        },
        {
          "indexed": false,
          "internalType": "address",
          "name": "buyer",
          "type": "address"
        },
        {
          "indexed": false,
          "internalType": "uint256",
          "name": "shareAmount",
          "type": "uint256"
        }
      ],
      "name": "PurchasedShare",
      "type": "event"
    },
    {
      "anonymous": false,
      "inputs": [
        {
          "indexed": false,
          "internalType": "address",
          "name": "collection",
          "type": "address"
        },
        {
          "indexed": false,
          "internalType": "uint16",
          "name": "tokenId",
          "type": "uint16"
        },
        {
          "indexed": false,
          "internalType": "uint256",
          "name": "price",
          "type": "uint256"
        }
      ],
      "name": "PutForSale",
      "type": "event"
    },
    {
      "anonymous": false,
      "inputs": [
        {
          "indexed": false,
          "internalType": "address",
          "name": "collection",
          "type": "address"
        },
        {
          "indexed": false,
          "internalType": "uint16",
          "name": "tokenId",
          "type": "uint16"
        },
        {
          "indexed": false,
          "internalType": "address",
          "name": "redeemer",
          "type": "address"
        },
        {
          "indexed": false,
          "internalType": "uint256",
          "name": "amount",
          "type": "uint256"
        }
      ],
      "name": "Redeemed",
      "type": "event"
    },
    {
      "anonymous": false,
      "inputs": [
        {
          "indexed": true,
          "internalType": "address",
          "name": "from",
          "type": "address"
        },
        {
          "indexed": true,
          "internalType": "address",
          "name": "to",
          "type": "address"
        },
        {
          "indexed": false,
          "internalType": "uint256",
          "name": "value",
          "type": "uint256"
        }
      ],
      "name": "Transfer",
      "type": "event"
    },
    {
      "inputs": [
        {
          "internalType": "address",
          "name": "owner",
          "type": "address"
        },
        {
          "internalType": "address",
          "name": "spender",
          "type": "address"
        }
      ],
      "name": "allowance",
      "outputs": [
        {
          "internalType": "uint256",
          "name": "",
          "type": "uint256"
        }
      ],
      "stateMutability": "view",
      "type": "function"
    },
    {
      "inputs": [
        {
          "internalType": "address",
          "name": "spender",
          "type": "address"
        },
        {
          "internalType": "uint256",
          "name": "value",
          "type": "uint256"
        }
      ],
      "name": "approve",
      "outputs": [
        {
          "internalType": "bool",
          "name": "",
          "type": "bool"
        }
      ],
      "stateMutability": "nonpayable",
      "type": "function"
    },
    {
      "inputs": [
        {
          "internalType": "address",
          "name": "account",
          "type": "address"
        }
      ],
      "name": "balanceOf",
      "outputs": [
        {
          "internalType": "uint256",
          "name": "",
          "type": "uint256"
        }
      ],
      "stateMutability": "view",
      "type": "function"
    },
    {
      "inputs": [],
      "name": "decimals",
      "outputs": [
        {
          "internalType": "uint8",
          "name": "",
          "type": "uint8"
        }
      ],
      "stateMutability": "view",
      "type": "function"
    },
    {
      "inputs": [
        {
          "internalType": "address",
          "name": "_collection",
          "type": "address"
        },
        {
          "internalType": "uint16",
          "name": "_tokenId",
          "type": "uint16"
        },
        {
          "internalType": "uint256",
          "name": "_amount",
          "type": "uint256"
        }
      ],
      "name": "initialize",
      "outputs": [],
      "stateMutability": "nonpayable",
      "type": "function"
    },
    {
      "inputs": [],
      "name": "name",
      "outputs": [
        {
          "internalType": "string",
          "name": "",
          "type": "string"
        }
      ],
      "stateMutability": "view",
      "type": "function"
    },
    {
      "inputs": [
        {
          "internalType": "address",
          "name": "",
          "type": "address"
        },
        {
          "internalType": "uint16",
          "name": "",
          "type": "uint16"
        }
      ],
      "name": "nftCollections",
      "outputs": [
        {
          "internalType": "uint16",
          "name": "tokenId",
          "type": "uint16"
        },
        {
          "internalType": "uint256",
          "name": "shares",
          "type": "uint256"
        },
        {
          "internalType": "bool",
          "name": "forSale",
          "type": "bool"
        },
        {
          "internalType": "uint256",
          "name": "salePrice",
          "type": "uint256"
        },
        {
          "internalType": "bool",
          "name": "redeemable",
          "type": "bool"
        }
      ],
      "stateMutability": "view",
      "type": "function"
    },
    {
      "inputs": [
        {
          "internalType": "address",
          "name": "",
          "type": "address"
        },
        {
          "internalType": "address",
          "name": "",
          "type": "address"
        },
        {
          "internalType": "uint256",
          "name": "",
          "type": "uint256"
        },
        {
          "internalType": "bytes",
          "name": "",
          "type": "bytes"
        }
      ],
      "name": "onERC721Received",
      "outputs": [
        {
          "internalType": "bytes4",
          "name": "",
          "type": "bytes4"
        }
      ],
      "stateMutability": "nonpayable",
      "type": "function"
    },
    {
      "inputs": [],
      "name": "owner",
      "outputs": [
        {
          "internalType": "address",
          "name": "",
          "type": "address"
        }
      ],
      "stateMutability": "view",
      "type": "function"
    },
    {
      "inputs": [
        {
          "internalType": "address",
          "name": "_collection",
          "type": "address"
        },
        {
          "internalType": "uint16",
          "name": "_tokenId",
          "type": "uint16"
        }
      ],
      "name": "purchase",
      "outputs": [],
      "stateMutability": "payable",
      "type": "function"
    },
    {
      "inputs": [
        {
          "internalType": "address",
          "name": "_collection",
          "type": "address"
        },
        {
          "internalType": "uint16",
          "name": "_tokenId",
          "type": "uint16"
        },
        {
          "internalType": "uint256",
          "name": "shareAmount",
          "type": "uint256"
        }
      ],
      "name": "purchaseShare",
      "outputs": [],
      "stateMutability": "payable",
      "type": "function"
    },
    {
      "inputs": [
        {
          "internalType": "address",
          "name": "_collection",
          "type": "address"
        },
        {
          "internalType": "uint16",
          "name": "_tokenId",
          "type": "uint16"
        },
        {
          "internalType": "uint256",
          "name": "price",
          "type": "uint256"
        }
      ],
      "name": "putForSale",
      "outputs": [],
      "stateMutability": "nonpayable",
      "type": "function"
    },
    {
      "inputs": [
        {
          "internalType": "address",
          "name": "_collection",
          "type": "address"
        },
        {
          "internalType": "uint16",
          "name": "_tokenId",
          "type": "uint16"
        },
        {
          "internalType": "uint256",
          "name": "_amount",
          "type": "uint256"
        }
      ],
      "name": "redeem",
      "outputs": [],
      "stateMutability": "nonpayable",
      "type": "function"
    },
    {
      "inputs": [],
      "name": "renounceOwnership",
      "outputs": [],
      "stateMutability": "nonpayable",
      "type": "function"
    },
    {
      "inputs": [],
      "name": "symbol",
      "outputs": [
        {
          "internalType": "string",
          "name": "",
          "type": "string"
        }
      ],
      "stateMutability": "view",
      "type": "function"
    },
    {
      "inputs": [],
      "name": "totalSupply",
      "outputs": [
        {
          "internalType": "uint256",
          "name": "",
          "type": "uint256"
        }
      ],
      "stateMutability": "view",
      "type": "function"
    },
    {
      "inputs": [
        {
          "internalType": "address",
          "name": "to",
          "type": "address"
        },
        {
          "internalType": "uint256",
          "name": "value",
          "type": "uint256"
        }
      ],
      "name": "transfer",
      "outputs": [
        {
          "internalType": "bool",
          "name": "",
          "type": "bool"
        }
      ],
      "stateMutability": "nonpayable",
      "type": "function"
    },
    {
      "inputs": [
        {
          "internalType": "address",
          "name": "from",
          "type": "address"
        },
        {
          "internalType": "address",
          "name": "to",
          "type": "address"
        },
        {
          "internalType": "uint256",
          "name": "value",
          "type": "uint256"
        }
      ],
      "name": "transferFrom",
      "outputs": [
        {
          "internalType": "bool",
          "name": "",
          "type": "bool"
        }
      ],
      "stateMutability": "nonpayable",
      "type": "function"
    },
    {
      "inputs": [
        {
          "internalType": "address",
          "name": "newOwner",
          "type": "address"
        }
      ],
      "name": "transferOwnership",
      "outputs": [],
      "stateMutability": "nonpayable",
      "type": "function"
    }
  ],
  "bytecode": "0x60806040523480156200001157600080fd5b5060405162002e4638038062002e4683398181016040528101906200003791906200028b565b806040518060400160405280600b81526020017f416e676c6520546f6b656e0000000000000000000000000000000000000000008152506040518060400160405280600381526020017f414e5400000000000000000000000000000000000000000000000000000000008152508160039081620000b5919062000537565b508060049081620000c7919062000537565b505050600073ffffffffffffffffffffffffffffffffffffffff168173ffffffffffffffffffffffffffffffffffffffff16036200013f5760006040517f1e4fbdf70000000000000000000000000000000000000000000000000000000081526004016200013691906200062f565b60405180910390fd5b62000150816200015b60201b60201c565b50339050506200064c565b6000600560009054906101000a900473ffffffffffffffffffffffffffffffffffffffff16905081600560006101000a81548173ffffffffffffffffffffffffffffffffffffffff021916908373ffffffffffffffffffffffffffffffffffffffff1602179055508173ffffffffffffffffffffffffffffffffffffffff168173ffffffffffffffffffffffffffffffffffffffff167f8be0079c531659141344cd1fd0a4f28419497f9722a3daafe3b4186f6b6457e060405160405180910390a35050565b600080fd5b600073ffffffffffffffffffffffffffffffffffffffff82169050919050565b6000620002538262000226565b9050919050565b620002658162000246565b81146200027157600080fd5b50565b60008151905062000285816200025a565b92915050565b600060208284031215620002a457620002a362000221565b5b6000620002b48482850162000274565b91505092915050565b600081519050919050565b7f4e487b7100000000000000000000000000000000000000000000000000000000600052604160045260246000fd5b7f4e487b7100000000000000000000000000000000000000000000000000000000600052602260045260246000fd5b600060028204905060018216806200033f57607f821691505b602082108103620003555762000354620002f7565b5b50919050565b60008190508160005260206000209050919050565b60006020601f8301049050919050565b600082821b905092915050565b600060088302620003bf7fffffffffffffffffffffffffffffffffffffffffffffffffffffffffffffffff8262000380565b620003cb868362000380565b95508019841693508086168417925050509392505050565b6000819050919050565b6000819050919050565b600062000418620004126200040c84620003e3565b620003ed565b620003e3565b9050919050565b6000819050919050565b6200043483620003f7565b6200044c62000443826200041f565b8484546200038d565b825550505050565b600090565b6200046362000454565b6200047081848462000429565b505050565b5b8181101562000498576200048c60008262000459565b60018101905062000476565b5050565b601f821115620004e757620004b1816200035b565b620004bc8462000370565b81016020851015620004cc578190505b620004e4620004db8562000370565b83018262000475565b50505b505050565b600082821c905092915050565b60006200050c60001984600802620004ec565b1980831691505092915050565b6000620005278383620004f9565b9150826002028217905092915050565b6200054282620002bd565b67ffffffffffffffff8111156200055e576200055d620002c8565b5b6200056a825462000326565b620005778282856200049c565b600060209050601f831160018114620005af57600084156200059a578287015190505b620005a6858262000519565b86555062000616565b601f198416620005bf866200035b565b60005b82811015620005e957848901518255600182019150602085019450602081019050620005c2565b8683101562000609578489015162000605601f891682620004f9565b8355505b6001600288020188555050505b505050505050565b620006298162000246565b82525050565b60006020820190506200064660008301846200061e565b92915050565b6127ea806200065c6000396000f3fe6080604052600436106101145760003560e01c806373ff591b116100a0578063b1113a8d11610064578063b1113a8d146103cb578063cd0afddf146103e7578063cde2fe2614610403578063dd62ed3e1461042c578063f2fde38b1461046957610114565b806373ff591b146102ce5780638da5cb5b146102f757806395d89b4114610322578063a9059cbb1461034d578063b038eb751461038a57610114565b80631f00dcb9116100e75780631f00dcb9146101e957806323b872dd14610212578063313ce5671461024f57806370a082311461027a578063715018a6146102b757610114565b806306fdde0314610119578063095ea7b314610144578063150b7a021461018157806318160ddd146101be575b600080fd5b34801561012557600080fd5b5061012e610492565b60405161013b9190611abf565b60405180910390f35b34801561015057600080fd5b5061016b60048036038101906101669190611b89565b610524565b6040516101789190611be4565b60405180910390f35b34801561018d57600080fd5b506101a860048036038101906101a39190611d34565b610547565b6040516101b59190611df2565b60405180910390f35b3480156101ca57600080fd5b506101d361055b565b6040516101e09190611e1c565b60405180910390f35b3480156101f557600080fd5b50610210600480360381019061020b9190611e71565b610565565b005b34801561021e57600080fd5b5061023960048036038101906102349190611ec4565b610735565b6040516102469190611be4565b60405180910390f35b34801561025b57600080fd5b50610264610764565b6040516102719190611f33565b60405180910390f35b34801561028657600080fd5b506102a1600480360381019061029c9190611f4e565b61076d565b6040516102ae9190611e1c565b60405180910390f35b3480156102c357600080fd5b506102cc6107b5565b005b3480156102da57600080fd5b506102f560048036038101906102f09190611e71565b6107c9565b005b34801561030357600080fd5b5061030c6108db565b6040516103199190611f8a565b60405180910390f35b34801561032e57600080fd5b50610337610905565b6040516103449190611abf565b60405180910390f35b34801561035957600080fd5b50610374600480360381019061036f9190611b89565b610997565b6040516103819190611be4565b60405180910390f35b34801561039657600080fd5b506103b160048036038101906103ac9190611fa5565b6109ba565b6040516103c2959493929190611ff4565b60405180910390f35b6103e560048036038101906103e09190611fa5565b610a25565b005b61040160048036038101906103fc9190611e71565b610c02565b005b34801561040f57600080fd5b5061042a60048036038101906104259190611e71565b610e87565b005b34801561043857600080fd5b50610453600480360381019061044e9190612047565b611133565b6040516104609190611e1c565b60405180910390f35b34801561047557600080fd5b50610490600480360381019061048b9190611f4e565b6111ba565b005b6060600380546104a1906120b6565b80601f01602080910402602001604051908101604052809291908181526020018280546104cd906120b6565b801561051a5780601f106104ef5761010080835404028352916020019161051a565b820191906000526020600020905b8154815290600101906020018083116104fd57829003601f168201915b5050505050905090565b60008061052f611240565b905061053c818585611248565b600191505092915050565b600063150b7a0260e01b9050949350505050565b6000600254905090565b6000600660008573ffffffffffffffffffffffffffffffffffffffff1673ffffffffffffffffffffffffffffffffffffffff16815260200190815260200160002060008461ffff1661ffff16815260200190815260200160002090508060040160009054906101000a900460ff16610612576040517f08c379a000000000000000000000000000000000000000000000000000000000815260040161060990612133565b60405180910390fd5b6000479050600061062161055b565b828561062d9190612182565b61063791906121f3565b9050610643338561125a565b60003373ffffffffffffffffffffffffffffffffffffffff168260405161066990612255565b60006040518083038185875af1925050503d80600081146106a6576040519150601f19603f3d011682016040523d82523d6000602084013e6106ab565b606091505b50509050806106ef576040517f08c379a00000000000000000000000000000000000000000000000000000000081526004016106e6906122b6565b60405180910390fd5b7f09374a8c84fffa942f00f08c8381ee90956176ef3abb0c07f3bcec9824b57b658787338560405161072494939291906122d6565b60405180910390a150505050505050565b600080610740611240565b905061074d8582856112dc565b610758858585611370565b60019150509392505050565b60006012905090565b60008060008373ffffffffffffffffffffffffffffffffffffffff1673ffffffffffffffffffffffffffffffffffffffff168152602001908152602001600020549050919050565b6107bd611464565b6107c760006114eb565b565b6107d1611464565b6000600660008573ffffffffffffffffffffffffffffffffffffffff1673ffffffffffffffffffffffffffffffffffffffff16815260200190815260200160002060008461ffff1661ffff16815260200190815260200160002090506000816001015411610874576040517f08c379a000000000000000000000000000000000000000000000000000000000815260040161086b90612367565b60405180910390fd5b60018160020160006101000a81548160ff0219169083151502179055508181600301819055507fc46ca3fcf538de013b98e7c2116c06341f507ed52856231c3b4dc95e36ba8ce78484846040516108cd93929190612387565b60405180910390a150505050565b6000600560009054906101000a900473ffffffffffffffffffffffffffffffffffffffff16905090565b606060048054610914906120b6565b80601f0160208091040260200160405190810160405280929190818152602001828054610940906120b6565b801561098d5780601f106109625761010080835404028352916020019161098d565b820191906000526020600020905b81548152906001019060200180831161097057829003601f168201915b5050505050905090565b6000806109a2611240565b90506109af818585611370565b600191505092915050565b6006602052816000526040600020602052806000526040600020600091509150508060000160009054906101000a900461ffff16908060010154908060020160009054906101000a900460ff16908060030154908060040160009054906101000a900460ff16905085565b6000600660008473ffffffffffffffffffffffffffffffffffffffff1673ffffffffffffffffffffffffffffffffffffffff16815260200190815260200160002060008361ffff1661ffff16815260200190815260200160002090508060020160009054906101000a900460ff16610ad2576040517f08c379a0000000000000000000000000000000000000000000000000000000008152600401610ac99061240a565b60405180910390fd5b8060030154341015610b19576040517f08c379a0000000000000000000000000000000000000000000000000000000008152600401610b1090612476565b60405180910390fd5b8273ffffffffffffffffffffffffffffffffffffffff166323b872dd3033856040518463ffffffff1660e01b8152600401610b56939291906124d1565b600060405180830381600087803b158015610b7057600080fd5b505af1158015610b84573d6000803e3d6000fd5b5050505060008160020160006101000a81548160ff02191690831515021790555060018160040160006101000a81548160ff0219169083151502179055507f44a0bd4380cb48c2ee952e691784d408804d454fdf3a7cc32fddb8cb995e4d6d838333604051610bf593929190612508565b60405180910390a1505050565b6000600660008573ffffffffffffffffffffffffffffffffffffffff1673ffffffffffffffffffffffffffffffffffffffff16815260200190815260200160002060008461ffff1661ffff16815260200190815260200160002090508060020160009054906101000a900460ff16610caf576040517f08c379a0000000000000000000000000000000000000000000000000000000008152600401610ca69061240a565b60405180910390fd5b600082118015610cc3575080600101548211155b610d02576040517f08c379a0000000000000000000000000000000000000000000000000000000008152600401610cf99061258b565b60405180910390fd5b60008160010154838360030154610d199190612182565b610d2391906121f3565b905080341015610d68576040517f08c379a0000000000000000000000000000000000000000000000000000000008152600401610d5f9061261d565b60405180910390fd5b610d7233846115b1565b82826001016000828254610d86919061263d565b925050819055506000826001015403610e435760008260020160006101000a81548160ff02191690831515021790555060018260040160006101000a81548160ff0219169083151502179055508473ffffffffffffffffffffffffffffffffffffffff166323b872dd3033876040518463ffffffff1660e01b8152600401610e10939291906124d1565b600060405180830381600087803b158015610e2a57600080fd5b505af1158015610e3e573d6000803e3d6000fd5b505050505b7f6479a8a5b69fffb42b24b601470fcda8ea34ee45b37ff531dd7685f64c0290d885853386604051610e7894939291906122d6565b60405180910390a15050505050565b610e8f611464565b60008111610ed2576040517f08c379a0000000000000000000000000000000000000000000000000000000008152600401610ec9906126bd565b60405180910390fd5b6000600660008573ffffffffffffffffffffffffffffffffffffffff1673ffffffffffffffffffffffffffffffffffffffff16815260200190815260200160002060008461ffff1661ffff1681526020019081526020016000206001015414610f70576040517f08c379a0000000000000000000000000000000000000000000000000000000008152600401610f6790612729565b60405180910390fd5b60008390508073ffffffffffffffffffffffffffffffffffffffff166342842e0e3330866040518463ffffffff1660e01b8152600401610fb2939291906124d1565b600060405180830381600087803b158015610fcc57600080fd5b505af1158015610fe0573d6000803e3d6000fd5b505050506040518060a001604052808461ffff1681526020018381526020016000151581526020016000815260200160001515815250600660008673ffffffffffffffffffffffffffffffffffffffff1673ffffffffffffffffffffffffffffffffffffffff16815260200190815260200160002060008561ffff1661ffff16815260200190815260200160002060008201518160000160006101000a81548161ffff021916908361ffff1602179055506020820151816001015560408201518160020160006101000a81548160ff0219169083151502179055506060820151816003015560808201518160040160006101000a81548160ff0219169083151502179055509050506110f233836115b1565b7ff4ed3b742a8dbf7a758d8e5451ee1cb527921091fec28fc31564ba35396f0cb684848460405161112593929190612387565b60405180910390a150505050565b6000600160008473ffffffffffffffffffffffffffffffffffffffff1673ffffffffffffffffffffffffffffffffffffffff16815260200190815260200160002060008373ffffffffffffffffffffffffffffffffffffffff1673ffffffffffffffffffffffffffffffffffffffff16815260200190815260200160002054905092915050565b6111c2611464565b600073ffffffffffffffffffffffffffffffffffffffff168173ffffffffffffffffffffffffffffffffffffffff16036112345760006040517f1e4fbdf700000000000000000000000000000000000000000000000000000000815260040161122b9190611f8a565b60405180910390fd5b61123d816114eb565b50565b600033905090565b6112558383836001611633565b505050565b600073ffffffffffffffffffffffffffffffffffffffff168273ffffffffffffffffffffffffffffffffffffffff16036112cc5760006040517f96c6fd1e0000000000000000000000000000000000000000000000000000000081526004016112c39190611f8a565b60405180910390fd5b6112d88260008361180a565b5050565b60006112e88484611133565b90507fffffffffffffffffffffffffffffffffffffffffffffffffffffffffffffffff811461136a578181101561135a578281836040517ffb8f41b200000000000000000000000000000000000000000000000000000000815260040161135193929190612749565b60405180910390fd5b61136984848484036000611633565b5b50505050565b600073ffffffffffffffffffffffffffffffffffffffff168373ffffffffffffffffffffffffffffffffffffffff16036113e25760006040517f96c6fd1e0000000000000000000000000000000000000000000000000000000081526004016113d99190611f8a565b60405180910390fd5b600073ffffffffffffffffffffffffffffffffffffffff168273ffffffffffffffffffffffffffffffffffffffff16036114545760006040517fec442f0500000000000000000000000000000000000000000000000000000000815260040161144b9190611f8a565b60405180910390fd5b61145f83838361180a565b505050565b61146c611240565b73ffffffffffffffffffffffffffffffffffffffff1661148a6108db565b73ffffffffffffffffffffffffffffffffffffffff16146114e9576114ad611240565b6040517f118cdaa70000000000000000000000000000000000000000000000000000000081526004016114e09190611f8a565b60405180910390fd5b565b6000600560009054906101000a900473ffffffffffffffffffffffffffffffffffffffff16905081600560006101000a81548173ffffffffffffffffffffffffffffffffffffffff021916908373ffffffffffffffffffffffffffffffffffffffff1602179055508173ffffffffffffffffffffffffffffffffffffffff168173ffffffffffffffffffffffffffffffffffffffff167f8be0079c531659141344cd1fd0a4f28419497f9722a3daafe3b4186f6b6457e060405160405180910390a35050565b600073ffffffffffffffffffffffffffffffffffffffff168273ffffffffffffffffffffffffffffffffffffffff16036116235760006040517fec442f0500000000000000000000000000000000000000000000000000000000815260040161161a9190611f8a565b60405180910390fd5b61162f6000838361180a565b5050565b600073ffffffffffffffffffffffffffffffffffffffff168473ffffffffffffffffffffffffffffffffffffffff16036116a55760006040517fe602df0500000000000000000000000000000000000000000000000000000000815260040161169c9190611f8a565b60405180910390fd5b600073ffffffffffffffffffffffffffffffffffffffff168373ffffffffffffffffffffffffffffffffffffffff16036117175760006040517f94280d6200000000000000000000000000000000000000000000000000000000815260040161170e9190611f8a565b60405180910390fd5b81600160008673ffffffffffffffffffffffffffffffffffffffff1673ffffffffffffffffffffffffffffffffffffffff16815260200190815260200160002060008573ffffffffffffffffffffffffffffffffffffffff1673ffffffffffffffffffffffffffffffffffffffff168152602001908152602001600020819055508015611804578273ffffffffffffffffffffffffffffffffffffffff168473ffffffffffffffffffffffffffffffffffffffff167f8c5be1e5ebec7d5bd14f71427d1e84f3dd0314c0f7b2291e5b200ac8c7c3b925846040516117fb9190611e1c565b60405180910390a35b50505050565b600073ffffffffffffffffffffffffffffffffffffffff168373ffffffffffffffffffffffffffffffffffffffff160361185c5780600260008282546118509190612780565b9250508190555061192f565b60008060008573ffffffffffffffffffffffffffffffffffffffff1673ffffffffffffffffffffffffffffffffffffffff168152602001908152602001600020549050818110156118e8578381836040517fe450d38c0000000000000000000000000000000000000000000000000000000081526004016118df93929190612749565b60405180910390fd5b8181036000808673ffffffffffffffffffffffffffffffffffffffff1673ffffffffffffffffffffffffffffffffffffffff16815260200190815260200160002081905550505b600073ffffffffffffffffffffffffffffffffffffffff168273ffffffffffffffffffffffffffffffffffffffff160361197857806002600082825403925050819055506119c5565b806000808473ffffffffffffffffffffffffffffffffffffffff1673ffffffffffffffffffffffffffffffffffffffff168152602001908152602001600020600082825401925050819055505b8173ffffffffffffffffffffffffffffffffffffffff168373ffffffffffffffffffffffffffffffffffffffff167fddf252ad1be2c89b69c2b068fc378daa952ba7f163c4a11628f55a4df523b3ef83604051611a229190611e1c565b60405180910390a3505050565b600081519050919050565b600082825260208201905092915050565b60005b83811015611a69578082015181840152602081019050611a4e565b60008484015250505050565b6000601f19601f8301169050919050565b6000611a9182611a2f565b611a9b8185611a3a565b9350611aab818560208601611a4b565b611ab481611a75565b840191505092915050565b60006020820190508181036000830152611ad98184611a86565b905092915050565b6000604051905090565b600080fd5b600080fd5b600073ffffffffffffffffffffffffffffffffffffffff82169050919050565b6000611b2082611af5565b9050919050565b611b3081611b15565b8114611b3b57600080fd5b50565b600081359050611b4d81611b27565b92915050565b6000819050919050565b611b6681611b53565b8114611b7157600080fd5b50565b600081359050611b8381611b5d565b92915050565b60008060408385031215611ba057611b9f611aeb565b5b6000611bae85828601611b3e565b9250506020611bbf85828601611b74565b9150509250929050565b60008115159050919050565b611bde81611bc9565b82525050565b6000602082019050611bf96000830184611bd5565b92915050565b600080fd5b600080fd5b7f4e487b7100000000000000000000000000000000000000000000000000000000600052604160045260246000fd5b611c4182611a75565b810181811067ffffffffffffffff82111715611c6057611c5f611c09565b5b80604052505050565b6000611c73611ae1565b9050611c7f8282611c38565b919050565b600067ffffffffffffffff821115611c9f57611c9e611c09565b5b611ca882611a75565b9050602081019050919050565b82818337600083830152505050565b6000611cd7611cd284611c84565b611c69565b905082815260208101848484011115611cf357611cf2611c04565b5b611cfe848285611cb5565b509392505050565b600082601f830112611d1b57611d1a611bff565b5b8135611d2b848260208601611cc4565b91505092915050565b60008060008060808587031215611d4e57611d4d611aeb565b5b6000611d5c87828801611b3e565b9450506020611d6d87828801611b3e565b9350506040611d7e87828801611b74565b925050606085013567ffffffffffffffff811115611d9f57611d9e611af0565b5b611dab87828801611d06565b91505092959194509250565b60007fffffffff0000000000000000000000000000000000000000000000000000000082169050919050565b611dec81611db7565b82525050565b6000602082019050611e076000830184611de3565b92915050565b611e1681611b53565b82525050565b6000602082019050611e316000830184611e0d565b92915050565b600061ffff82169050919050565b611e4e81611e37565b8114611e5957600080fd5b50565b600081359050611e6b81611e45565b92915050565b600080600060608486031215611e8a57611e89611aeb565b5b6000611e9886828701611b3e565b9350506020611ea986828701611e5c565b9250506040611eba86828701611b74565b9150509250925092565b600080600060608486031215611edd57611edc611aeb565b5b6000611eeb86828701611b3e565b9350506020611efc86828701611b3e565b9250506040611f0d86828701611b74565b9150509250925092565b600060ff82169050919050565b611f2d81611f17565b82525050565b6000602082019050611f486000830184611f24565b92915050565b600060208284031215611f6457611f63611aeb565b5b6000611f7284828501611b3e565b91505092915050565b611f8481611b15565b82525050565b6000602082019050611f9f6000830184611f7b565b92915050565b60008060408385031215611fbc57611fbb611aeb565b5b6000611fca85828601611b3e565b9250506020611fdb85828601611e5c565b9150509250929050565b611fee81611e37565b82525050565b600060a0820190506120096000830188611fe5565b6120166020830187611e0d565b6120236040830186611bd5565b6120306060830185611e0d565b61203d6080830184611bd5565b9695505050505050565b6000806040838503121561205e5761205d611aeb565b5b600061206c85828601611b3e565b925050602061207d85828601611b3e565b9150509250929050565b7f4e487b7100000000000000000000000000000000000000000000000000000000600052602260045260246000fd5b600060028204905060018216806120ce57607f821691505b6020821081036120e1576120e0612087565b5b50919050565b7f526564656d7074696f6e206e6f7420617661696c61626c650000000000000000600082015250565b600061211d601883611a3a565b9150612128826120e7565b602082019050919050565b6000602082019050818103600083015261214c81612110565b9050919050565b7f4e487b7100000000000000000000000000000000000000000000000000000000600052601160045260246000fd5b600061218d82611b53565b915061219883611b53565b92508282026121a681611b53565b915082820484148315176121bd576121bc612153565b5b5092915050565b7f4e487b7100000000000000000000000000000000000000000000000000000000600052601260045260246000fd5b60006121fe82611b53565b915061220983611b53565b925082612219576122186121c4565b5b828204905092915050565b600081905092915050565b50565b600061223f600083612224565b915061224a8261222f565b600082019050919050565b600061226082612232565b9150819050919050565b7f4661696c656420746f2073656e64204574686572000000000000000000000000600082015250565b60006122a0601483611a3a565b91506122ab8261226a565b602082019050919050565b600060208201905081810360008301526122cf81612293565b9050919050565b60006080820190506122eb6000830187611f7b565b6122f86020830186611fe5565b6123056040830185611f7b565b6123126060830184611e0d565b95945050505050565b7f4e4654206e6f7420696e697469616c697a656400000000000000000000000000600082015250565b6000612351601383611a3a565b915061235c8261231b565b602082019050919050565b6000602082019050818103600083015261238081612344565b9050919050565b600060608201905061239c6000830186611f7b565b6123a96020830185611fe5565b6123b66040830184611e0d565b949350505050565b7f4e6f7420666f722073616c650000000000000000000000000000000000000000600082015250565b60006123f4600c83611a3a565b91506123ff826123be565b602082019050919050565b60006020820190508181036000830152612423816123e7565b9050919050565b7f4e6f7420656e6f75676820657468657220746f20707572636861736500000000600082015250565b6000612460601c83611a3a565b915061246b8261242a565b602082019050919050565b6000602082019050818103600083015261248f81612453565b9050919050565b6000819050919050565b60006124bb6124b66124b184611e37565b612496565b611b53565b9050919050565b6124cb816124a0565b82525050565b60006060820190506124e66000830186611f7b565b6124f36020830185611f7b565b61250060408301846124c2565b949350505050565b600060608201905061251d6000830186611f7b565b61252a6020830185611fe5565b6125376040830184611f7b565b949350505050565b7f496e76616c696420736861726520616d6f756e74000000000000000000000000600082015250565b6000612575601483611a3a565b91506125808261253f565b602082019050919050565b600060208201905081810360008301526125a481612568565b9050919050565b7f4e6f7420656e6f75676820657468657220746f2070757263686173652073686160008201527f7265730000000000000000000000000000000000000000000000000000000000602082015250565b6000612607602383611a3a565b9150612612826125ab565b604082019050919050565b60006020820190508181036000830152612636816125fa565b9050919050565b600061264882611b53565b915061265383611b53565b925082820390508181111561266b5761266a612153565b5b92915050565b7f43616e277420696e697469616c697a65207a65726f20616d6f756e7400000000600082015250565b60006126a7601c83611a3a565b91506126b282612671565b602082019050919050565b600060208201905081810360008301526126d68161269a565b9050919050565b7f416c726561647920696e697469616c697a656400000000000000000000000000600082015250565b6000612713601383611a3a565b915061271e826126dd565b602082019050919050565b6000602082019050818103600083015261274281612706565b9050919050565b600060608201905061275e6000830186611f7b565b61276b6020830185611e0d565b6127786040830184611e0d565b949350505050565b600061278b82611b53565b915061279683611b53565b92508282019050808211156127ae576127ad612153565b5b9291505056fea264697066735822122097b1bacf38b44fce091fbf5efadee70e98ac845a4ed11389b03d1e24f56b24c664736f6c63430008140033",
  "linkReferences": {},
  "deployedLinkReferences": {}
}