{
  "_format": "hh-sol-artifact-1",
  "contractName": "FractionalNft",
  "sourceName": "contracts/fractionalNft.sol",
  "abi": [
    {
      "inputs": [
        {
          "internalType": "address",
          "name": "initialOwner",
          "type": "address"
        },
        {
          "internalType": "address",
          "name": "priceFeed",
          "type": "address"
        }
      ],
      "stateMutability": "nonpayable",
      "type": "constructor"
    },
    {
      "inputs": [
        {
          "internalType": "address",
          "name": "spender",
          "type": "address"
        },
        {
          "internalType": "uint256",
          "name": "allowance",
          "type": "uint256"
        },
        {
          "internalType": "uint256",
          "name": "needed",
          "type": "uint256"
        }
      ],
      "name": "ERC20InsufficientAllowance",
      "type": "error"
    },
    {
      "inputs": [
        {
          "internalType": "address",
          "name": "sender",
          "type": "address"
        },
        {
          "internalType": "uint256",
          "name": "balance",
          "type": "uint256"
        },
        {
          "internalType": "uint256",
          "name": "needed",
          "type": "uint256"
        }
      ],
      "name": "ERC20InsufficientBalance",
      "type": "error"
    },
    {
      "inputs": [
        {
          "internalType": "address",
          "name": "approver",
          "type": "address"
        }
      ],
      "name": "ERC20InvalidApprover",
      "type": "error"
    },
    {
      "inputs": [
        {
          "internalType": "address",
          "name": "receiver",
          "type": "address"
        }
      ],
      "name": "ERC20InvalidReceiver",
      "type": "error"
    },
    {
      "inputs": [
        {
          "internalType": "address",
          "name": "sender",
          "type": "address"
        }
      ],
      "name": "ERC20InvalidSender",
      "type": "error"
    },
    {
      "inputs": [
        {
          "internalType": "address",
          "name": "spender",
          "type": "address"
        }
      ],
      "name": "ERC20InvalidSpender",
      "type": "error"
    },
    {
      "inputs": [
        {
          "internalType": "address",
          "name": "owner",
          "type": "address"
        }
      ],
      "name": "OwnableInvalidOwner",
      "type": "error"
    },
    {
      "inputs": [
        {
          "internalType": "address",
          "name": "account",
          "type": "address"
        }
      ],
      "name": "OwnableUnauthorizedAccount",
      "type": "error"
    },
    {
      "anonymous": false,
      "inputs": [
        {
          "indexed": true,
          "internalType": "address",
          "name": "owner",
          "type": "address"
        },
        {
          "indexed": true,
          "internalType": "address",
          "name": "spender",
          "type": "address"
        },
        {
          "indexed": false,
          "internalType": "uint256",
          "name": "value",
          "type": "uint256"
        }
      ],
      "name": "Approval",
      "type": "event"
    },
    {
      "anonymous": false,
      "inputs": [
        {
          "indexed": false,
          "internalType": "address",
          "name": "collection",
          "type": "address"
        },
        {
          "indexed": false,
          "internalType": "uint16",
          "name": "tokenId",
          "type": "uint16"
        },
        {
          "indexed": false,
          "internalType": "uint256",
          "name": "shares",
          "type": "uint256"
        }
      ],
      "name": "Initialized",
      "type": "event"
    },
    {
      "anonymous": false,
      "inputs": [
        {
          "indexed": true,
          "internalType": "address",
          "name": "previousOwner",
          "type": "address"
        },
        {
          "indexed": true,
          "internalType": "address",
          "name": "newOwner",
          "type": "address"
        }
      ],
      "name": "OwnershipTransferred",
      "type": "event"
    },
    {
      "anonymous": false,
      "inputs": [
        {
          "indexed": false,
          "internalType": "address",
          "name": "collection",
          "type": "address"
        },
        {
          "indexed": false,
          "internalType": "uint16",
          "name": "tokenId",
          "type": "uint16"
        },
        {
          "indexed": false,
          "internalType": "address",
          "name": "buyer",
          "type": "address"
        }
      ],
      "name": "Purchased",
      "type": "event"
    },
    {
      "anonymous": false,
      "inputs": [
        {
          "indexed": false,
          "internalType": "address",
          "name": "collection",
          "type": "address"
        },
        {
          "indexed": false,
          "internalType": "uint16",
          "name": "tokenId",
          "type": "uint16"
        },
        {
          "indexed": false,
          "internalType": "address",
          "name": "buyer",
          "type": "address"
        },
        {
          "indexed": false,
          "internalType": "uint256",
          "name": "shareAmount",
          "type": "uint256"
        }
      ],
      "name": "PurchasedShare",
      "type": "event"
    },
    {
      "anonymous": false,
      "inputs": [
        {
          "indexed": false,
          "internalType": "address",
          "name": "collection",
          "type": "address"
        },
        {
          "indexed": false,
          "internalType": "uint16",
          "name": "tokenId",
          "type": "uint16"
        },
        {
          "indexed": false,
          "internalType": "uint256",
          "name": "price",
          "type": "uint256"
        }
      ],
      "name": "PutForSale",
      "type": "event"
    },
    {
      "anonymous": false,
      "inputs": [
        {
          "indexed": false,
          "internalType": "address",
          "name": "collection",
          "type": "address"
        },
        {
          "indexed": false,
          "internalType": "uint16",
          "name": "tokenId",
          "type": "uint16"
        },
        {
          "indexed": false,
          "internalType": "address",
          "name": "redeemer",
          "type": "address"
        },
        {
          "indexed": false,
          "internalType": "uint256",
          "name": "amount",
          "type": "uint256"
        }
      ],
      "name": "Redeemed",
      "type": "event"
    },
    {
      "anonymous": false,
      "inputs": [
        {
          "indexed": true,
          "internalType": "address",
          "name": "from",
          "type": "address"
        },
        {
          "indexed": true,
          "internalType": "address",
          "name": "to",
          "type": "address"
        },
        {
          "indexed": false,
          "internalType": "uint256",
          "name": "value",
          "type": "uint256"
        }
      ],
      "name": "Transfer",
      "type": "event"
    },
    {
      "inputs": [
        {
          "internalType": "address",
          "name": "owner",
          "type": "address"
        },
        {
          "internalType": "address",
          "name": "spender",
          "type": "address"
        }
      ],
      "name": "allowance",
      "outputs": [
        {
          "internalType": "uint256",
          "name": "",
          "type": "uint256"
        }
      ],
      "stateMutability": "view",
      "type": "function"
    },
    {
      "inputs": [
        {
          "internalType": "address",
          "name": "spender",
          "type": "address"
        },
        {
          "internalType": "uint256",
          "name": "value",
          "type": "uint256"
        }
      ],
      "name": "approve",
      "outputs": [
        {
          "internalType": "bool",
          "name": "",
          "type": "bool"
        }
      ],
      "stateMutability": "nonpayable",
      "type": "function"
    },
    {
      "inputs": [
        {
          "internalType": "address",
          "name": "account",
          "type": "address"
        }
      ],
      "name": "balanceOf",
      "outputs": [
        {
          "internalType": "uint256",
          "name": "",
          "type": "uint256"
        }
      ],
      "stateMutability": "view",
      "type": "function"
    },
    {
      "inputs": [],
      "name": "decimals",
      "outputs": [
        {
          "internalType": "uint8",
          "name": "",
          "type": "uint8"
        }
      ],
      "stateMutability": "view",
      "type": "function"
    },
    {
      "inputs": [
        {
          "internalType": "address",
          "name": "_collection",
          "type": "address"
        },
        {
          "internalType": "uint16",
          "name": "_tokenId",
          "type": "uint16"
        },
        {
          "internalType": "uint256",
          "name": "_amount",
          "type": "uint256"
        }
      ],
      "name": "initialize",
      "outputs": [],
      "stateMutability": "nonpayable",
      "type": "function"
    },
    {
      "inputs": [],
      "name": "name",
      "outputs": [
        {
          "internalType": "string",
          "name": "",
          "type": "string"
        }
      ],
      "stateMutability": "view",
      "type": "function"
    },
    {
      "inputs": [
        {
          "internalType": "address",
          "name": "",
          "type": "address"
        },
        {
          "internalType": "uint16",
          "name": "",
          "type": "uint16"
        }
      ],
      "name": "nftCollections",
      "outputs": [
        {
          "internalType": "uint16",
          "name": "tokenId",
          "type": "uint16"
        },
        {
          "internalType": "uint256",
          "name": "shares",
          "type": "uint256"
        },
        {
          "internalType": "bool",
          "name": "forSale",
          "type": "bool"
        },
        {
          "internalType": "uint256",
          "name": "salePrice",
          "type": "uint256"
        },
        {
          "internalType": "bool",
          "name": "redeemable",
          "type": "bool"
        }
      ],
      "stateMutability": "view",
      "type": "function"
    },
    {
      "inputs": [
        {
          "internalType": "address",
          "name": "",
          "type": "address"
        },
        {
          "internalType": "address",
          "name": "",
          "type": "address"
        },
        {
          "internalType": "uint256",
          "name": "",
          "type": "uint256"
        },
        {
          "internalType": "bytes",
          "name": "",
          "type": "bytes"
        }
      ],
      "name": "onERC721Received",
      "outputs": [
        {
          "internalType": "bytes4",
          "name": "",
          "type": "bytes4"
        }
      ],
      "stateMutability": "nonpayable",
      "type": "function"
    },
    {
      "inputs": [],
      "name": "owner",
      "outputs": [
        {
          "internalType": "address",
          "name": "",
          "type": "address"
        }
      ],
      "stateMutability": "view",
      "type": "function"
    },
    {
      "inputs": [
        {
          "internalType": "address",
          "name": "_collection",
          "type": "address"
        },
        {
          "internalType": "uint16",
          "name": "_tokenId",
          "type": "uint16"
        }
      ],
      "name": "purchase",
      "outputs": [],
      "stateMutability": "payable",
      "type": "function"
    },
    {
      "inputs": [
        {
          "internalType": "address",
          "name": "_collection",
          "type": "address"
        },
        {
          "internalType": "uint16",
          "name": "_tokenId",
          "type": "uint16"
        },
        {
          "internalType": "uint256",
          "name": "shareAmount",
          "type": "uint256"
        }
      ],
      "name": "purchaseShare",
      "outputs": [],
      "stateMutability": "payable",
      "type": "function"
    },
    {
      "inputs": [
        {
          "internalType": "address",
          "name": "_collection",
          "type": "address"
        },
        {
          "internalType": "uint16",
          "name": "_tokenId",
          "type": "uint16"
        },
        {
          "internalType": "uint256",
          "name": "price",
          "type": "uint256"
        }
      ],
      "name": "putForSale",
      "outputs": [],
      "stateMutability": "nonpayable",
      "type": "function"
    },
    {
      "inputs": [
        {
          "internalType": "address",
          "name": "_collection",
          "type": "address"
        },
        {
          "internalType": "uint16",
          "name": "_tokenId",
          "type": "uint16"
        },
        {
          "internalType": "uint256",
          "name": "_amount",
          "type": "uint256"
        }
      ],
      "name": "redeem",
      "outputs": [],
      "stateMutability": "nonpayable",
      "type": "function"
    },
    {
      "inputs": [],
      "name": "renounceOwnership",
      "outputs": [],
      "stateMutability": "nonpayable",
      "type": "function"
    },
    {
      "inputs": [],
      "name": "symbol",
      "outputs": [
        {
          "internalType": "string",
          "name": "",
          "type": "string"
        }
      ],
      "stateMutability": "view",
      "type": "function"
    },
    {
      "inputs": [
        {
          "internalType": "uint256",
          "name": "",
          "type": "uint256"
        }
      ],
      "name": "tokenIdToPrice",
      "outputs": [
        {
          "internalType": "uint256",
          "name": "",
          "type": "uint256"
        }
      ],
      "stateMutability": "view",
      "type": "function"
    },
    {
      "inputs": [],
      "name": "totalSupply",
      "outputs": [
        {
          "internalType": "uint256",
          "name": "",
          "type": "uint256"
        }
      ],
      "stateMutability": "view",
      "type": "function"
    },
    {
      "inputs": [
        {
          "internalType": "address",
          "name": "to",
          "type": "address"
        },
        {
          "internalType": "uint256",
          "name": "value",
          "type": "uint256"
        }
      ],
      "name": "transfer",
      "outputs": [
        {
          "internalType": "bool",
          "name": "",
          "type": "bool"
        }
      ],
      "stateMutability": "nonpayable",
      "type": "function"
    },
    {
      "inputs": [
        {
          "internalType": "address",
          "name": "from",
          "type": "address"
        },
        {
          "internalType": "address",
          "name": "to",
          "type": "address"
        },
        {
          "internalType": "uint256",
          "name": "value",
          "type": "uint256"
        }
      ],
      "name": "transferFrom",
      "outputs": [
        {
          "internalType": "bool",
          "name": "",
          "type": "bool"
        }
      ],
      "stateMutability": "nonpayable",
      "type": "function"
    },
    {
      "inputs": [
        {
          "internalType": "address",
          "name": "newOwner",
          "type": "address"
        }
      ],
      "name": "transferOwnership",
      "outputs": [],
      "stateMutability": "nonpayable",
      "type": "function"
    }
  ],
  "bytecode": "0x60806040523480156200001157600080fd5b50604051620031dc380380620031dc8339818101604052810190620000379190620002cd565b816040518060400160405280600b81526020017f416e676c6520546f6b656e0000000000000000000000000000000000000000008152506040518060400160405280600381526020017f414e5400000000000000000000000000000000000000000000000000000000008152508160039081620000b591906200058e565b508060049081620000c791906200058e565b505050600073ffffffffffffffffffffffffffffffffffffffff168173ffffffffffffffffffffffffffffffffffffffff16036200013f5760006040517f1e4fbdf700000000000000000000000000000000000000000000000000000000815260040162000136919062000686565b60405180910390fd5b62000150816200019d60201b60201c565b5033915080600660006101000a81548173ffffffffffffffffffffffffffffffffffffffff021916908373ffffffffffffffffffffffffffffffffffffffff1602179055505050620006a3565b6000600560009054906101000a900473ffffffffffffffffffffffffffffffffffffffff16905081600560006101000a81548173ffffffffffffffffffffffffffffffffffffffff021916908373ffffffffffffffffffffffffffffffffffffffff1602179055508173ffffffffffffffffffffffffffffffffffffffff168173ffffffffffffffffffffffffffffffffffffffff167f8be0079c531659141344cd1fd0a4f28419497f9722a3daafe3b4186f6b6457e060405160405180910390a35050565b600080fd5b600073ffffffffffffffffffffffffffffffffffffffff82169050919050565b6000620002958262000268565b9050919050565b620002a78162000288565b8114620002b357600080fd5b50565b600081519050620002c7816200029c565b92915050565b60008060408385031215620002e757620002e662000263565b5b6000620002f785828601620002b6565b92505060206200030a85828601620002b6565b9150509250929050565b600081519050919050565b7f4e487b7100000000000000000000000000000000000000000000000000000000600052604160045260246000fd5b7f4e487b7100000000000000000000000000000000000000000000000000000000600052602260045260246000fd5b600060028204905060018216806200039657607f821691505b602082108103620003ac57620003ab6200034e565b5b50919050565b60008190508160005260206000209050919050565b60006020601f8301049050919050565b600082821b905092915050565b600060088302620004167fffffffffffffffffffffffffffffffffffffffffffffffffffffffffffffffff82620003d7565b620004228683620003d7565b95508019841693508086168417925050509392505050565b6000819050919050565b6000819050919050565b60006200046f6200046962000463846200043a565b62000444565b6200043a565b9050919050565b6000819050919050565b6200048b836200044e565b620004a36200049a8262000476565b848454620003e4565b825550505050565b600090565b620004ba620004ab565b620004c781848462000480565b505050565b5b81811015620004ef57620004e3600082620004b0565b600181019050620004cd565b5050565b601f8211156200053e576200050881620003b2565b6200051384620003c7565b8101602085101562000523578190505b6200053b6200053285620003c7565b830182620004cc565b50505b505050565b600082821c905092915050565b6000620005636000198460080262000543565b1980831691505092915050565b60006200057e838362000550565b9150826002028217905092915050565b620005998262000314565b67ffffffffffffffff811115620005b557620005b46200031f565b5b620005c182546200037d565b620005ce828285620004f3565b600060209050601f831160018114620006065760008415620005f1578287015190505b620005fd858262000570565b8655506200066d565b601f1984166200061686620003b2565b60005b82811015620006405784890151825560018201915060208501945060208101905062000619565b868310156200066057848901516200065c601f89168262000550565b8355505b6001600288020188555050505b505050505050565b620006808162000288565b82525050565b60006020820190506200069d600083018462000675565b92915050565b612b2980620006b36000396000f3fe60806040526004361061011f5760003560e01c80638da5cb5b116100a0578063cd0afddf11610064578063cd0afddf146103f2578063cde2fe261461040e578063dd62ed3e14610437578063f2fde38b14610474578063f4812eb91461049d5761011f565b80638da5cb5b1461030257806395d89b411461032d578063a9059cbb14610358578063b038eb7514610395578063b1113a8d146103d65761011f565b806323b872dd116100e757806323b872dd1461021d578063313ce5671461025a57806370a0823114610285578063715018a6146102c257806373ff591b146102d95761011f565b806306fdde0314610124578063095ea7b31461014f578063150b7a021461018c57806318160ddd146101c95780631f00dcb9146101f4575b600080fd5b34801561013057600080fd5b506101396104da565b6040516101469190611c51565b60405180910390f35b34801561015b57600080fd5b5061017660048036038101906101719190611d1b565b61056c565b6040516101839190611d76565b60405180910390f35b34801561019857600080fd5b506101b360048036038101906101ae9190611ec6565b61058f565b6040516101c09190611f84565b60405180910390f35b3480156101d557600080fd5b506101de6105a3565b6040516101eb9190611fae565b60405180910390f35b34801561020057600080fd5b5061021b60048036038101906102169190612003565b6105ad565b005b34801561022957600080fd5b50610244600480360381019061023f9190612056565b61077d565b6040516102519190611d76565b60405180910390f35b34801561026657600080fd5b5061026f6107ac565b60405161027c91906120c5565b60405180910390f35b34801561029157600080fd5b506102ac60048036038101906102a791906120e0565b6107b5565b6040516102b99190611fae565b60405180910390f35b3480156102ce57600080fd5b506102d76107fd565b005b3480156102e557600080fd5b5061030060048036038101906102fb9190612003565b610811565b005b34801561030e57600080fd5b50610317610951565b604051610324919061211c565b60405180910390f35b34801561033957600080fd5b5061034261097b565b60405161034f9190611c51565b60405180910390f35b34801561036457600080fd5b5061037f600480360381019061037a9190611d1b565b610a0d565b60405161038c9190611d76565b60405180910390f35b3480156103a157600080fd5b506103bc60048036038101906103b79190612137565b610a30565b6040516103cd959493929190612186565b60405180910390f35b6103f060048036038101906103eb9190612137565b610a9b565b005b61040c60048036038101906104079190612003565b610cac565b005b34801561041a57600080fd5b5061043560048036038101906104309190612003565b610f31565b005b34801561044357600080fd5b5061045e600480360381019061045991906121d9565b6111dd565b60405161046b9190611fae565b60405180910390f35b34801561048057600080fd5b5061049b600480360381019061049691906120e0565b611264565b005b3480156104a957600080fd5b506104c460048036038101906104bf9190612219565b6112ea565b6040516104d19190611fae565b60405180910390f35b6060600380546104e990612275565b80601f016020809104026020016040519081016040528092919081815260200182805461051590612275565b80156105625780601f1061053757610100808354040283529160200191610562565b820191906000526020600020905b81548152906001019060200180831161054557829003601f168201915b5050505050905090565b600080610577611302565b905061058481858561130a565b600191505092915050565b600063150b7a0260e01b9050949350505050565b6000600254905090565b6000600860008573ffffffffffffffffffffffffffffffffffffffff1673ffffffffffffffffffffffffffffffffffffffff16815260200190815260200160002060008461ffff1661ffff16815260200190815260200160002090508060040160009054906101000a900460ff1661065a576040517f08c379a0000000000000000000000000000000000000000000000000000000008152600401610651906122f2565b60405180910390fd5b600047905060006106696105a3565b82856106759190612341565b61067f91906123b2565b905061068b338561131c565b60003373ffffffffffffffffffffffffffffffffffffffff16826040516106b190612414565b60006040518083038185875af1925050503d80600081146106ee576040519150601f19603f3d011682016040523d82523d6000602084013e6106f3565b606091505b5050905080610737576040517f08c379a000000000000000000000000000000000000000000000000000000000815260040161072e90612475565b60405180910390fd5b7f09374a8c84fffa942f00f08c8381ee90956176ef3abb0c07f3bcec9824b57b658787338560405161076c9493929190612495565b60405180910390a150505050505050565b600080610788611302565b905061079585828561139e565b6107a0858585611432565b60019150509392505050565b60006012905090565b60008060008373ffffffffffffffffffffffffffffffffffffffff1673ffffffffffffffffffffffffffffffffffffffff168152602001908152602001600020549050919050565b610805611526565b61080f60006115ad565b565b610819611526565b6000600860008573ffffffffffffffffffffffffffffffffffffffff1673ffffffffffffffffffffffffffffffffffffffff16815260200190815260200160002060008461ffff1661ffff168152602001908152602001600020905060008160010154116108bc576040517f08c379a00000000000000000000000000000000000000000000000000000000081526004016108b390612526565b60405180910390fd5b60018160020160006101000a81548160ff02191690831515021790555081816003018190555081600760008561ffff16815260200190815260200160002060008282546109099190612546565b925050819055507fc46ca3fcf538de013b98e7c2116c06341f507ed52856231c3b4dc95e36ba8ce78484846040516109439392919061257a565b60405180910390a150505050565b6000600560009054906101000a900473ffffffffffffffffffffffffffffffffffffffff16905090565b60606004805461098a90612275565b80601f01602080910402602001604051908101604052809291908181526020018280546109b690612275565b8015610a035780601f106109d857610100808354040283529160200191610a03565b820191906000526020600020905b8154815290600101906020018083116109e657829003601f168201915b5050505050905090565b600080610a18611302565b9050610a25818585611432565b600191505092915050565b6008602052816000526040600020602052806000526040600020600091509150508060000160009054906101000a900461ffff16908060010154908060020160009054906101000a900460ff16908060030154908060040160009054906101000a900460ff16905085565b6000600860008473ffffffffffffffffffffffffffffffffffffffff1673ffffffffffffffffffffffffffffffffffffffff16815260200190815260200160002060008361ffff1661ffff16815260200190815260200160002090508060020160009054906101000a900460ff16610b48576040517f08c379a0000000000000000000000000000000000000000000000000000000008152600401610b3f906125fd565b60405180910390fd5b8060030154610b82600660009054906101000a900473ffffffffffffffffffffffffffffffffffffffff163461167390919063ffffffff16565b1015610bc3576040517f08c379a0000000000000000000000000000000000000000000000000000000008152600401610bba90612669565b60405180910390fd5b8273ffffffffffffffffffffffffffffffffffffffff166323b872dd3033856040518463ffffffff1660e01b8152600401610c00939291906126c4565b600060405180830381600087803b158015610c1a57600080fd5b505af1158015610c2e573d6000803e3d6000fd5b5050505060008160020160006101000a81548160ff02191690831515021790555060018160040160006101000a81548160ff0219169083151502179055507f44a0bd4380cb48c2ee952e691784d408804d454fdf3a7cc32fddb8cb995e4d6d838333604051610c9f939291906126fb565b60405180910390a1505050565b6000600860008573ffffffffffffffffffffffffffffffffffffffff1673ffffffffffffffffffffffffffffffffffffffff16815260200190815260200160002060008461ffff1661ffff16815260200190815260200160002090508060020160009054906101000a900460ff16610d59576040517f08c379a0000000000000000000000000000000000000000000000000000000008152600401610d50906125fd565b60405180910390fd5b600082118015610d6d575080600101548211155b610dac576040517f08c379a0000000000000000000000000000000000000000000000000000000008152600401610da39061277e565b60405180910390fd5b60008160010154838360030154610dc39190612341565b610dcd91906123b2565b905080341015610e12576040517f08c379a0000000000000000000000000000000000000000000000000000000008152600401610e0990612810565b60405180910390fd5b610e1c33846116af565b82826001016000828254610e309190612830565b925050819055506000826001015403610eed5760008260020160006101000a81548160ff02191690831515021790555060018260040160006101000a81548160ff0219169083151502179055508473ffffffffffffffffffffffffffffffffffffffff166323b872dd3033876040518463ffffffff1660e01b8152600401610eba939291906126c4565b600060405180830381600087803b158015610ed457600080fd5b505af1158015610ee8573d6000803e3d6000fd5b505050505b7f6479a8a5b69fffb42b24b601470fcda8ea34ee45b37ff531dd7685f64c0290d885853386604051610f229493929190612495565b60405180910390a15050505050565b610f39611526565b60008111610f7c576040517f08c379a0000000000000000000000000000000000000000000000000000000008152600401610f73906128b0565b60405180910390fd5b6000600860008573ffffffffffffffffffffffffffffffffffffffff1673ffffffffffffffffffffffffffffffffffffffff16815260200190815260200160002060008461ffff1661ffff168152602001908152602001600020600101541461101a576040517f08c379a00000000000000000000000000000000000000000000000000000000081526004016110119061291c565b60405180910390fd5b60008390508073ffffffffffffffffffffffffffffffffffffffff166342842e0e3330866040518463ffffffff1660e01b815260040161105c939291906126c4565b600060405180830381600087803b15801561107657600080fd5b505af115801561108a573d6000803e3d6000fd5b505050506040518060a001604052808461ffff1681526020018381526020016000151581526020016000815260200160001515815250600860008673ffffffffffffffffffffffffffffffffffffffff1673ffffffffffffffffffffffffffffffffffffffff16815260200190815260200160002060008561ffff1661ffff16815260200190815260200160002060008201518160000160006101000a81548161ffff021916908361ffff1602179055506020820151816001015560408201518160020160006101000a81548160ff0219169083151502179055506060820151816003015560808201518160040160006101000a81548160ff02191690831515021790555090505061119c33836116af565b7ff4ed3b742a8dbf7a758d8e5451ee1cb527921091fec28fc31564ba35396f0cb68484846040516111cf9392919061257a565b60405180910390a150505050565b6000600160008473ffffffffffffffffffffffffffffffffffffffff1673ffffffffffffffffffffffffffffffffffffffff16815260200190815260200160002060008373ffffffffffffffffffffffffffffffffffffffff1673ffffffffffffffffffffffffffffffffffffffff16815260200190815260200160002054905092915050565b61126c611526565b600073ffffffffffffffffffffffffffffffffffffffff168173ffffffffffffffffffffffffffffffffffffffff16036112de5760006040517f1e4fbdf70000000000000000000000000000000000000000000000000000000081526004016112d5919061211c565b60405180910390fd5b6112e7816115ad565b50565b60076020528060005260406000206000915090505481565b600033905090565b6113178383836001611731565b505050565b600073ffffffffffffffffffffffffffffffffffffffff168273ffffffffffffffffffffffffffffffffffffffff160361138e5760006040517f96c6fd1e000000000000000000000000000000000000000000000000000000008152600401611385919061211c565b60405180910390fd5b61139a82600083611908565b5050565b60006113aa84846111dd565b90507fffffffffffffffffffffffffffffffffffffffffffffffffffffffffffffffff811461142c578181101561141c578281836040517ffb8f41b20000000000000000000000000000000000000000000000000000000081526004016114139392919061293c565b60405180910390fd5b61142b84848484036000611731565b5b50505050565b600073ffffffffffffffffffffffffffffffffffffffff168373ffffffffffffffffffffffffffffffffffffffff16036114a45760006040517f96c6fd1e00000000000000000000000000000000000000000000000000000000815260040161149b919061211c565b60405180910390fd5b600073ffffffffffffffffffffffffffffffffffffffff168273ffffffffffffffffffffffffffffffffffffffff16036115165760006040517fec442f0500000000000000000000000000000000000000000000000000000000815260040161150d919061211c565b60405180910390fd5b611521838383611908565b505050565b61152e611302565b73ffffffffffffffffffffffffffffffffffffffff1661154c610951565b73ffffffffffffffffffffffffffffffffffffffff16146115ab5761156f611302565b6040517f118cdaa70000000000000000000000000000000000000000000000000000000081526004016115a2919061211c565b60405180910390fd5b565b6000600560009054906101000a900473ffffffffffffffffffffffffffffffffffffffff16905081600560006101000a81548173ffffffffffffffffffffffffffffffffffffffff021916908373ffffffffffffffffffffffffffffffffffffffff1602179055508173ffffffffffffffffffffffffffffffffffffffff168173ffffffffffffffffffffffffffffffffffffffff167f8be0079c531659141344cd1fd0a4f28419497f9722a3daafe3b4186f6b6457e060405160405180910390a35050565b60008061167f83611b2d565b90506000670de0b6b3a764000085836116989190612341565b6116a291906123b2565b9050809250505092915050565b600073ffffffffffffffffffffffffffffffffffffffff168273ffffffffffffffffffffffffffffffffffffffff16036117215760006040517fec442f05000000000000000000000000000000000000000000000000000000008152600401611718919061211c565b60405180910390fd5b61172d60008383611908565b5050565b600073ffffffffffffffffffffffffffffffffffffffff168473ffffffffffffffffffffffffffffffffffffffff16036117a35760006040517fe602df0500000000000000000000000000000000000000000000000000000000815260040161179a919061211c565b60405180910390fd5b600073ffffffffffffffffffffffffffffffffffffffff168373ffffffffffffffffffffffffffffffffffffffff16036118155760006040517f94280d6200000000000000000000000000000000000000000000000000000000815260040161180c919061211c565b60405180910390fd5b81600160008673ffffffffffffffffffffffffffffffffffffffff1673ffffffffffffffffffffffffffffffffffffffff16815260200190815260200160002060008573ffffffffffffffffffffffffffffffffffffffff1673ffffffffffffffffffffffffffffffffffffffff168152602001908152602001600020819055508015611902578273ffffffffffffffffffffffffffffffffffffffff168473ffffffffffffffffffffffffffffffffffffffff167f8c5be1e5ebec7d5bd14f71427d1e84f3dd0314c0f7b2291e5b200ac8c7c3b925846040516118f99190611fae565b60405180910390a35b50505050565b600073ffffffffffffffffffffffffffffffffffffffff168373ffffffffffffffffffffffffffffffffffffffff160361195a57806002600082825461194e9190612546565b92505081905550611a2d565b60008060008573ffffffffffffffffffffffffffffffffffffffff1673ffffffffffffffffffffffffffffffffffffffff168152602001908152602001600020549050818110156119e6578381836040517fe450d38c0000000000000000000000000000000000000000000000000000000081526004016119dd9392919061293c565b60405180910390fd5b8181036000808673ffffffffffffffffffffffffffffffffffffffff1673ffffffffffffffffffffffffffffffffffffffff16815260200190815260200160002081905550505b600073ffffffffffffffffffffffffffffffffffffffff168273ffffffffffffffffffffffffffffffffffffffff1603611a765780600260008282540392505081905550611ac3565b806000808473ffffffffffffffffffffffffffffffffffffffff1673ffffffffffffffffffffffffffffffffffffffff168152602001908152602001600020600082825401925050819055505b8173ffffffffffffffffffffffffffffffffffffffff168373ffffffffffffffffffffffffffffffffffffffff167fddf252ad1be2c89b69c2b068fc378daa952ba7f163c4a11628f55a4df523b3ef83604051611b209190611fae565b60405180910390a3505050565b6000808273ffffffffffffffffffffffffffffffffffffffff1663feaf968c6040518163ffffffff1660e01b815260040160a060405180830381865afa158015611b7b573d6000803e3d6000fd5b505050506040513d601f19601f82011682018060405250810190611b9f9190612a00565b505050915050670de0b6b3a764000081611bb99190612a7b565b915050919050565b600081519050919050565b600082825260208201905092915050565b60005b83811015611bfb578082015181840152602081019050611be0565b60008484015250505050565b6000601f19601f8301169050919050565b6000611c2382611bc1565b611c2d8185611bcc565b9350611c3d818560208601611bdd565b611c4681611c07565b840191505092915050565b60006020820190508181036000830152611c6b8184611c18565b905092915050565b6000604051905090565b600080fd5b600080fd5b600073ffffffffffffffffffffffffffffffffffffffff82169050919050565b6000611cb282611c87565b9050919050565b611cc281611ca7565b8114611ccd57600080fd5b50565b600081359050611cdf81611cb9565b92915050565b6000819050919050565b611cf881611ce5565b8114611d0357600080fd5b50565b600081359050611d1581611cef565b92915050565b60008060408385031215611d3257611d31611c7d565b5b6000611d4085828601611cd0565b9250506020611d5185828601611d06565b9150509250929050565b60008115159050919050565b611d7081611d5b565b82525050565b6000602082019050611d8b6000830184611d67565b92915050565b600080fd5b600080fd5b7f4e487b7100000000000000000000000000000000000000000000000000000000600052604160045260246000fd5b611dd382611c07565b810181811067ffffffffffffffff82111715611df257611df1611d9b565b5b80604052505050565b6000611e05611c73565b9050611e118282611dca565b919050565b600067ffffffffffffffff821115611e3157611e30611d9b565b5b611e3a82611c07565b9050602081019050919050565b82818337600083830152505050565b6000611e69611e6484611e16565b611dfb565b905082815260208101848484011115611e8557611e84611d96565b5b611e90848285611e47565b509392505050565b600082601f830112611ead57611eac611d91565b5b8135611ebd848260208601611e56565b91505092915050565b60008060008060808587031215611ee057611edf611c7d565b5b6000611eee87828801611cd0565b9450506020611eff87828801611cd0565b9350506040611f1087828801611d06565b925050606085013567ffffffffffffffff811115611f3157611f30611c82565b5b611f3d87828801611e98565b91505092959194509250565b60007fffffffff0000000000000000000000000000000000000000000000000000000082169050919050565b611f7e81611f49565b82525050565b6000602082019050611f996000830184611f75565b92915050565b611fa881611ce5565b82525050565b6000602082019050611fc36000830184611f9f565b92915050565b600061ffff82169050919050565b611fe081611fc9565b8114611feb57600080fd5b50565b600081359050611ffd81611fd7565b92915050565b60008060006060848603121561201c5761201b611c7d565b5b600061202a86828701611cd0565b935050602061203b86828701611fee565b925050604061204c86828701611d06565b9150509250925092565b60008060006060848603121561206f5761206e611c7d565b5b600061207d86828701611cd0565b935050602061208e86828701611cd0565b925050604061209f86828701611d06565b9150509250925092565b600060ff82169050919050565b6120bf816120a9565b82525050565b60006020820190506120da60008301846120b6565b92915050565b6000602082840312156120f6576120f5611c7d565b5b600061210484828501611cd0565b91505092915050565b61211681611ca7565b82525050565b6000602082019050612131600083018461210d565b92915050565b6000806040838503121561214e5761214d611c7d565b5b600061215c85828601611cd0565b925050602061216d85828601611fee565b9150509250929050565b61218081611fc9565b82525050565b600060a08201905061219b6000830188612177565b6121a86020830187611f9f565b6121b56040830186611d67565b6121c26060830185611f9f565b6121cf6080830184611d67565b9695505050505050565b600080604083850312156121f0576121ef611c7d565b5b60006121fe85828601611cd0565b925050602061220f85828601611cd0565b9150509250929050565b60006020828403121561222f5761222e611c7d565b5b600061223d84828501611d06565b91505092915050565b7f4e487b7100000000000000000000000000000000000000000000000000000000600052602260045260246000fd5b6000600282049050600182168061228d57607f821691505b6020821081036122a05761229f612246565b5b50919050565b7f526564656d7074696f6e206e6f7420617661696c61626c650000000000000000600082015250565b60006122dc601883611bcc565b91506122e7826122a6565b602082019050919050565b6000602082019050818103600083015261230b816122cf565b9050919050565b7f4e487b7100000000000000000000000000000000000000000000000000000000600052601160045260246000fd5b600061234c82611ce5565b915061235783611ce5565b925082820261236581611ce5565b9150828204841483151761237c5761237b612312565b5b5092915050565b7f4e487b7100000000000000000000000000000000000000000000000000000000600052601260045260246000fd5b60006123bd82611ce5565b91506123c883611ce5565b9250826123d8576123d7612383565b5b828204905092915050565b600081905092915050565b50565b60006123fe6000836123e3565b9150612409826123ee565b600082019050919050565b600061241f826123f1565b9150819050919050565b7f4661696c656420746f2073656e64204574686572000000000000000000000000600082015250565b600061245f601483611bcc565b915061246a82612429565b602082019050919050565b6000602082019050818103600083015261248e81612452565b9050919050565b60006080820190506124aa600083018761210d565b6124b76020830186612177565b6124c4604083018561210d565b6124d16060830184611f9f565b95945050505050565b7f4e4654206e6f7420696e697469616c697a656400000000000000000000000000600082015250565b6000612510601383611bcc565b915061251b826124da565b602082019050919050565b6000602082019050818103600083015261253f81612503565b9050919050565b600061255182611ce5565b915061255c83611ce5565b925082820190508082111561257457612573612312565b5b92915050565b600060608201905061258f600083018661210d565b61259c6020830185612177565b6125a96040830184611f9f565b949350505050565b7f4e6f7420666f722073616c650000000000000000000000000000000000000000600082015250565b60006125e7600c83611bcc565b91506125f2826125b1565b602082019050919050565b60006020820190508181036000830152612616816125da565b9050919050565b7f4e6f7420656e6f75676820657468657220746f20707572636861736500000000600082015250565b6000612653601c83611bcc565b915061265e8261261d565b602082019050919050565b6000602082019050818103600083015261268281612646565b9050919050565b6000819050919050565b60006126ae6126a96126a484611fc9565b612689565b611ce5565b9050919050565b6126be81612693565b82525050565b60006060820190506126d9600083018661210d565b6126e6602083018561210d565b6126f360408301846126b5565b949350505050565b6000606082019050612710600083018661210d565b61271d6020830185612177565b61272a604083018461210d565b949350505050565b7f496e76616c696420736861726520616d6f756e74000000000000000000000000600082015250565b6000612768601483611bcc565b915061277382612732565b602082019050919050565b600060208201905081810360008301526127978161275b565b9050919050565b7f4e6f7420656e6f75676820657468657220746f2070757263686173652073686160008201527f7265730000000000000000000000000000000000000000000000000000000000602082015250565b60006127fa602383611bcc565b91506128058261279e565b604082019050919050565b60006020820190508181036000830152612829816127ed565b9050919050565b600061283b82611ce5565b915061284683611ce5565b925082820390508181111561285e5761285d612312565b5b92915050565b7f43616e277420696e697469616c697a65207a65726f20616d6f756e7400000000600082015250565b600061289a601c83611bcc565b91506128a582612864565b602082019050919050565b600060208201905081810360008301526128c98161288d565b9050919050565b7f416c726561647920696e697469616c697a656400000000000000000000000000600082015250565b6000612906601383611bcc565b9150612911826128d0565b602082019050919050565b60006020820190508181036000830152612935816128f9565b9050919050565b6000606082019050612951600083018661210d565b61295e6020830185611f9f565b61296b6040830184611f9f565b949350505050565b600069ffffffffffffffffffff82169050919050565b61299281612973565b811461299d57600080fd5b50565b6000815190506129af81612989565b92915050565b6000819050919050565b6129c8816129b5565b81146129d357600080fd5b50565b6000815190506129e5816129bf565b92915050565b6000815190506129fa81611cef565b92915050565b600080600080600060a08688031215612a1c57612a1b611c7d565b5b6000612a2a888289016129a0565b9550506020612a3b888289016129d6565b9450506040612a4c888289016129eb565b9350506060612a5d888289016129eb565b9250506080612a6e888289016129a0565b9150509295509295909350565b6000612a86826129b5565b9150612a91836129b5565b9250828202612a9f816129b5565b91507f80000000000000000000000000000000000000000000000000000000000000008414600084121615612ad757612ad6612312565b5b8282058414831517612aec57612aeb612312565b5b509291505056fea2646970667358221220f1cc87f43fda6c1379888b72ee1aaa8ab3213b6d10bba6e49206f050ed0a82f564736f6c63430008140033",
  "linkReferences": {},
  "deployedLinkReferences": {}
}