{
  "_format": "hh-sol-artifact-1",
  "contractName": "Nft",
  "sourceName": "contracts/Nft.sol",
  "abi": [
    {
      "inputs": [
        {
          "internalType": "string",
          "name": "name",
          "type": "string"
        },
        {
          "internalType": "string",
          "name": "symbol",
          "type": "string"
        },
        {
          "internalType": "address",
          "name": "initialOwner",
          "type": "address"
        }
      ],
      "stateMutability": "nonpayable",
      "type": "constructor"
    },
    {
      "inputs": [
        {
          "internalType": "address",
          "name": "sender",
          "type": "address"
        },
        {
          "internalType": "uint256",
          "name": "tokenId",
          "type": "uint256"
        },
        {
          "internalType": "address",
          "name": "owner",
          "type": "address"
        }
      ],
      "name": "ERC721IncorrectOwner",
      "type": "error"
    },
    {
      "inputs": [
        {
          "internalType": "address",
          "name": "operator",
          "type": "address"
        },
        {
          "internalType": "uint256",
          "name": "tokenId",
          "type": "uint256"
        }
      ],
      "name": "ERC721InsufficientApproval",
      "type": "error"
    },
    {
      "inputs": [
        {
          "internalType": "address",
          "name": "approver",
          "type": "address"
        }
      ],
      "name": "ERC721InvalidApprover",
      "type": "error"
    },
    {
      "inputs": [
        {
          "internalType": "address",
          "name": "operator",
          "type": "address"
        }
      ],
      "name": "ERC721InvalidOperator",
      "type": "error"
    },
    {
      "inputs": [
        {
          "internalType": "address",
          "name": "owner",
          "type": "address"
        }
      ],
      "name": "ERC721InvalidOwner",
      "type": "error"
    },
    {
      "inputs": [
        {
          "internalType": "address",
          "name": "receiver",
          "type": "address"
        }
      ],
      "name": "ERC721InvalidReceiver",
      "type": "error"
    },
    {
      "inputs": [
        {
          "internalType": "address",
          "name": "sender",
          "type": "address"
        }
      ],
      "name": "ERC721InvalidSender",
      "type": "error"
    },
    {
      "inputs": [
        {
          "internalType": "uint256",
          "name": "tokenId",
          "type": "uint256"
        }
      ],
      "name": "ERC721NonexistentToken",
      "type": "error"
    },
    {
      "inputs": [
        {
          "internalType": "address",
          "name": "owner",
          "type": "address"
        }
      ],
      "name": "OwnableInvalidOwner",
      "type": "error"
    },
    {
      "inputs": [
        {
          "internalType": "address",
          "name": "account",
          "type": "address"
        }
      ],
      "name": "OwnableUnauthorizedAccount",
      "type": "error"
    },
    {
      "anonymous": false,
      "inputs": [
        {
          "indexed": true,
          "internalType": "address",
          "name": "owner",
          "type": "address"
        },
        {
          "indexed": true,
          "internalType": "address",
          "name": "approved",
          "type": "address"
        },
        {
          "indexed": true,
          "internalType": "uint256",
          "name": "tokenId",
          "type": "uint256"
        }
      ],
      "name": "Approval",
      "type": "event"
    },
    {
      "anonymous": false,
      "inputs": [
        {
          "indexed": true,
          "internalType": "address",
          "name": "owner",
          "type": "address"
        },
        {
          "indexed": true,
          "internalType": "address",
          "name": "operator",
          "type": "address"
        },
        {
          "indexed": false,
          "internalType": "bool",
          "name": "approved",
          "type": "bool"
        }
      ],
      "name": "ApprovalForAll",
      "type": "event"
    },
    {
      "anonymous": false,
      "inputs": [
        {
          "indexed": false,
          "internalType": "uint256",
          "name": "_fromTokenId",
          "type": "uint256"
        },
        {
          "indexed": false,
          "internalType": "uint256",
          "name": "_toTokenId",
          "type": "uint256"
        }
      ],
      "name": "BatchMetadataUpdate",
      "type": "event"
    },
    {
      "anonymous": false,
      "inputs": [
        {
          "indexed": false,
          "internalType": "uint256",
          "name": "_tokenId",
          "type": "uint256"
        }
      ],
      "name": "MetadataUpdate",
      "type": "event"
    },
    {
      "anonymous": false,
      "inputs": [
        {
          "indexed": true,
          "internalType": "address",
          "name": "previousOwner",
          "type": "address"
        },
        {
          "indexed": true,
          "internalType": "address",
          "name": "newOwner",
          "type": "address"
        }
      ],
      "name": "OwnershipTransferred",
      "type": "event"
    },
    {
      "anonymous": false,
      "inputs": [
        {
          "indexed": true,
          "internalType": "address",
          "name": "from",
          "type": "address"
        },
        {
          "indexed": true,
          "internalType": "address",
          "name": "to",
          "type": "address"
        },
        {
          "indexed": true,
          "internalType": "uint256",
          "name": "tokenId",
          "type": "uint256"
        }
      ],
      "name": "Transfer",
      "type": "event"
    },
    {
      "inputs": [
        {
          "internalType": "address",
          "name": "to",
          "type": "address"
        },
        {
          "internalType": "uint256",
          "name": "tokenId",
          "type": "uint256"
        }
      ],
      "name": "approve",
      "outputs": [],
      "stateMutability": "nonpayable",
      "type": "function"
    },
    {
      "inputs": [
        {
          "internalType": "address",
          "name": "owner",
          "type": "address"
        }
      ],
      "name": "balanceOf",
      "outputs": [
        {
          "internalType": "uint256",
          "name": "",
          "type": "uint256"
        }
      ],
      "stateMutability": "view",
      "type": "function"
    },
    {
      "inputs": [
        {
          "internalType": "uint256",
          "name": "tokenId",
          "type": "uint256"
        }
      ],
      "name": "getApproved",
      "outputs": [
        {
          "internalType": "address",
          "name": "",
          "type": "address"
        }
      ],
      "stateMutability": "view",
      "type": "function"
    },
    {
      "inputs": [
        {
          "internalType": "address",
          "name": "owner",
          "type": "address"
        },
        {
          "internalType": "address",
          "name": "operator",
          "type": "address"
        }
      ],
      "name": "isApprovedForAll",
      "outputs": [
        {
          "internalType": "bool",
          "name": "",
          "type": "bool"
        }
      ],
      "stateMutability": "view",
      "type": "function"
    },
    {
      "inputs": [
        {
          "internalType": "address",
          "name": "_to",
          "type": "address"
        },
        {
          "internalType": "uint256",
          "name": "tokenId",
          "type": "uint256"
        },
        {
          "internalType": "string",
          "name": "_uri",
          "type": "string"
        }
      ],
      "name": "mint",
      "outputs": [],
      "stateMutability": "nonpayable",
      "type": "function"
    },
    {
      "inputs": [],
      "name": "name",
      "outputs": [
        {
          "internalType": "string",
          "name": "",
          "type": "string"
        }
      ],
      "stateMutability": "view",
      "type": "function"
    },
    {
      "inputs": [],
      "name": "owner",
      "outputs": [
        {
          "internalType": "address",
          "name": "",
          "type": "address"
        }
      ],
      "stateMutability": "view",
      "type": "function"
    },
    {
      "inputs": [
        {
          "internalType": "uint256",
          "name": "tokenId",
          "type": "uint256"
        }
      ],
      "name": "ownerOf",
      "outputs": [
        {
          "internalType": "address",
          "name": "",
          "type": "address"
        }
      ],
      "stateMutability": "view",
      "type": "function"
    },
    {
      "inputs": [],
      "name": "renounceOwnership",
      "outputs": [],
      "stateMutability": "nonpayable",
      "type": "function"
    },
    {
      "inputs": [
        {
          "internalType": "address",
          "name": "from",
          "type": "address"
        },
        {
          "internalType": "address",
          "name": "to",
          "type": "address"
        },
        {
          "internalType": "uint256",
          "name": "tokenId",
          "type": "uint256"
        }
      ],
      "name": "safeTransferFrom",
      "outputs": [],
      "stateMutability": "nonpayable",
      "type": "function"
    },
    {
      "inputs": [
        {
          "internalType": "address",
          "name": "from",
          "type": "address"
        },
        {
          "internalType": "address",
          "name": "to",
          "type": "address"
        },
        {
          "internalType": "uint256",
          "name": "tokenId",
          "type": "uint256"
        },
        {
          "internalType": "bytes",
          "name": "data",
          "type": "bytes"
        }
      ],
      "name": "safeTransferFrom",
      "outputs": [],
      "stateMutability": "nonpayable",
      "type": "function"
    },
    {
      "inputs": [
        {
          "internalType": "address",
          "name": "operator",
          "type": "address"
        },
        {
          "internalType": "bool",
          "name": "approved",
          "type": "bool"
        }
      ],
      "name": "setApprovalForAll",
      "outputs": [],
      "stateMutability": "nonpayable",
      "type": "function"
    },
    {
      "inputs": [
        {
          "internalType": "bytes4",
          "name": "interfaceId",
          "type": "bytes4"
        }
      ],
      "name": "supportsInterface",
      "outputs": [
        {
          "internalType": "bool",
          "name": "",
          "type": "bool"
        }
      ],
      "stateMutability": "view",
      "type": "function"
    },
    {
      "inputs": [],
      "name": "symbol",
      "outputs": [
        {
          "internalType": "string",
          "name": "",
          "type": "string"
        }
      ],
      "stateMutability": "view",
      "type": "function"
    },
    {
      "inputs": [
        {
          "internalType": "uint256",
          "name": "tokenId",
          "type": "uint256"
        }
      ],
      "name": "tokenURI",
      "outputs": [
        {
          "internalType": "string",
          "name": "",
          "type": "string"
        }
      ],
      "stateMutability": "view",
      "type": "function"
    },
    {
      "inputs": [
        {
          "internalType": "address",
          "name": "from",
          "type": "address"
        },
        {
          "internalType": "address",
          "name": "to",
          "type": "address"
        },
        {
          "internalType": "uint256",
          "name": "tokenId",
          "type": "uint256"
        }
      ],
      "name": "transferFrom",
      "outputs": [],
      "stateMutability": "nonpayable",
      "type": "function"
    },
    {
      "inputs": [
        {
          "internalType": "address",
          "name": "newOwner",
          "type": "address"
        }
      ],
      "name": "transferOwnership",
      "outputs": [],
      "stateMutability": "nonpayable",
      "type": "function"
    }
  ],
  "bytecode": "0x60806040523480156200001157600080fd5b5060405162002d6238038062002d628339818101604052810190620000379190620003ae565b80838381600090816200004b919062000693565b5080600190816200005d919062000693565b505050600073ffffffffffffffffffffffffffffffffffffffff168173ffffffffffffffffffffffffffffffffffffffff1603620000d55760006040517f1e4fbdf7000000000000000000000000000000000000000000000000000000008152600401620000cc91906200078b565b60405180910390fd5b620000e681620000f060201b60201c565b50505050620007a8565b6000600760009054906101000a900473ffffffffffffffffffffffffffffffffffffffff16905081600760006101000a81548173ffffffffffffffffffffffffffffffffffffffff021916908373ffffffffffffffffffffffffffffffffffffffff1602179055508173ffffffffffffffffffffffffffffffffffffffff168173ffffffffffffffffffffffffffffffffffffffff167f8be0079c531659141344cd1fd0a4f28419497f9722a3daafe3b4186f6b6457e060405160405180910390a35050565b6000604051905090565b600080fd5b600080fd5b600080fd5b600080fd5b6000601f19601f8301169050919050565b7f4e487b7100000000000000000000000000000000000000000000000000000000600052604160045260246000fd5b6200021f82620001d4565b810181811067ffffffffffffffff82111715620002415762000240620001e5565b5b80604052505050565b600062000256620001b6565b905062000264828262000214565b919050565b600067ffffffffffffffff821115620002875762000286620001e5565b5b6200029282620001d4565b9050602081019050919050565b60005b83811015620002bf578082015181840152602081019050620002a2565b60008484015250505050565b6000620002e2620002dc8462000269565b6200024a565b905082815260208101848484011115620003015762000300620001cf565b5b6200030e8482856200029f565b509392505050565b600082601f8301126200032e576200032d620001ca565b5b815162000340848260208601620002cb565b91505092915050565b600073ffffffffffffffffffffffffffffffffffffffff82169050919050565b6000620003768262000349565b9050919050565b620003888162000369565b81146200039457600080fd5b50565b600081519050620003a8816200037d565b92915050565b600080600060608486031215620003ca57620003c9620001c0565b5b600084015167ffffffffffffffff811115620003eb57620003ea620001c5565b5b620003f98682870162000316565b935050602084015167ffffffffffffffff8111156200041d576200041c620001c5565b5b6200042b8682870162000316565b92505060406200043e8682870162000397565b9150509250925092565b600081519050919050565b7f4e487b7100000000000000000000000000000000000000000000000000000000600052602260045260246000fd5b600060028204905060018216806200049b57607f821691505b602082108103620004b157620004b062000453565b5b50919050565b60008190508160005260206000209050919050565b60006020601f8301049050919050565b600082821b905092915050565b6000600883026200051b7fffffffffffffffffffffffffffffffffffffffffffffffffffffffffffffffff82620004dc565b620005278683620004dc565b95508019841693508086168417925050509392505050565b6000819050919050565b6000819050919050565b6000620005746200056e62000568846200053f565b62000549565b6200053f565b9050919050565b6000819050919050565b620005908362000553565b620005a86200059f826200057b565b848454620004e9565b825550505050565b600090565b620005bf620005b0565b620005cc81848462000585565b505050565b5b81811015620005f457620005e8600082620005b5565b600181019050620005d2565b5050565b601f82111562000643576200060d81620004b7565b6200061884620004cc565b8101602085101562000628578190505b620006406200063785620004cc565b830182620005d1565b50505b505050565b600082821c905092915050565b6000620006686000198460080262000648565b1980831691505092915050565b600062000683838362000655565b9150826002028217905092915050565b6200069e8262000448565b67ffffffffffffffff811115620006ba57620006b9620001e5565b5b620006c6825462000482565b620006d3828285620005f8565b600060209050601f8311600181146200070b5760008415620006f6578287015190505b62000702858262000675565b86555062000772565b601f1984166200071b86620004b7565b60005b8281101562000745578489015182556001820191506020850194506020810190506200071e565b8683101562000765578489015162000761601f89168262000655565b8355505b6001600288020188555050505b505050505050565b620007858162000369565b82525050565b6000602082019050620007a260008301846200077a565b92915050565b6125aa80620007b86000396000f3fe608060405234801561001057600080fd5b506004361061010b5760003560e01c8063715018a6116100a2578063b88d4fde11610071578063b88d4fde146102a4578063c87b56dd146102c0578063d3fc9864146102f0578063e985e9c51461030c578063f2fde38b1461033c5761010b565b8063715018a6146102425780638da5cb5b1461024c57806395d89b411461026a578063a22cb465146102885761010b565b806323b872dd116100de57806323b872dd146101aa57806342842e0e146101c65780636352211e146101e257806370a08231146102125761010b565b806301ffc9a71461011057806306fdde0314610140578063081812fc1461015e578063095ea7b31461018e575b600080fd5b61012a60048036038101906101259190611aa2565b610358565b6040516101379190611aea565b60405180910390f35b6101486103b9565b6040516101559190611b95565b60405180910390f35b61017860048036038101906101739190611bed565b61044b565b6040516101859190611c5b565b60405180910390f35b6101a860048036038101906101a39190611ca2565b610467565b005b6101c460048036038101906101bf9190611ce2565b61047d565b005b6101e060048036038101906101db9190611ce2565b61057f565b005b6101fc60048036038101906101f79190611bed565b61059f565b6040516102099190611c5b565b60405180910390f35b61022c60048036038101906102279190611d35565b6105b1565b6040516102399190611d71565b60405180910390f35b61024a61066b565b005b61025461067f565b6040516102619190611c5b565b60405180910390f35b6102726106a9565b60405161027f9190611b95565b60405180910390f35b6102a2600480360381019061029d9190611db8565b61073b565b005b6102be60048036038101906102b99190611f2d565b610751565b005b6102da60048036038101906102d59190611bed565b61076e565b6040516102e79190611b95565b60405180910390f35b61030a60048036038101906103059190612010565b610881565b005b61032660048036038101906103219190612084565b6108e7565b6040516103339190611aea565b60405180910390f35b61035660048036038101906103519190611d35565b61097b565b005b6000634906490660e01b7bffffffffffffffffffffffffffffffffffffffffffffffffffffffff1916827bffffffffffffffffffffffffffffffffffffffffffffffffffffffff191614806103b257506103b182610a01565b5b9050919050565b6060600080546103c8906120f3565b80601f01602080910402602001604051908101604052809291908181526020018280546103f4906120f3565b80156104415780601f1061041657610100808354040283529160200191610441565b820191906000526020600020905b81548152906001019060200180831161042457829003601f168201915b5050505050905090565b600061045682610ae3565b5061046082610b6b565b9050919050565b6104798282610474610ba8565b610bb0565b5050565b600073ffffffffffffffffffffffffffffffffffffffff168273ffffffffffffffffffffffffffffffffffffffff16036104ef5760006040517f64a0ae920000000000000000000000000000000000000000000000000000000081526004016104e69190611c5b565b60405180910390fd5b600061050383836104fe610ba8565b610bc2565b90508373ffffffffffffffffffffffffffffffffffffffff168173ffffffffffffffffffffffffffffffffffffffff1614610579578382826040517f64283d7b00000000000000000000000000000000000000000000000000000000815260040161057093929190612124565b60405180910390fd5b50505050565b61059a83838360405180602001604052806000815250610751565b505050565b60006105aa82610ae3565b9050919050565b60008073ffffffffffffffffffffffffffffffffffffffff168273ffffffffffffffffffffffffffffffffffffffff16036106245760006040517f89c62b6400000000000000000000000000000000000000000000000000000000815260040161061b9190611c5b565b60405180910390fd5b600360008373ffffffffffffffffffffffffffffffffffffffff1673ffffffffffffffffffffffffffffffffffffffff168152602001908152602001600020549050919050565b610673610ddc565b61067d6000610e63565b565b6000600760009054906101000a900473ffffffffffffffffffffffffffffffffffffffff16905090565b6060600180546106b8906120f3565b80601f01602080910402602001604051908101604052809291908181526020018280546106e4906120f3565b80156107315780601f1061070657610100808354040283529160200191610731565b820191906000526020600020905b81548152906001019060200180831161071457829003601f168201915b5050505050905090565b61074d610746610ba8565b8383610f29565b5050565b61075c84848461047d565b61076884848484611098565b50505050565b606061077982610ae3565b50600060066000848152602001908152602001600020805461079a906120f3565b80601f01602080910402602001604051908101604052809291908181526020018280546107c6906120f3565b80156108135780601f106107e857610100808354040283529160200191610813565b820191906000526020600020905b8154815290600101906020018083116107f657829003601f168201915b50505050509050600061082461124f565b9050600081510361083957819250505061087c565b60008251111561086e578082604051602001610856929190612197565b6040516020818303038152906040529250505061087c565b61087784611266565b925050505b919050565b610889610ddc565b61089384846112cf565b6108e18383838080601f016020809104026020016040519081016040528093929190818152602001838380828437600081840152601f19601f820116905080830192505050505050506113c8565b50505050565b6000600560008473ffffffffffffffffffffffffffffffffffffffff1673ffffffffffffffffffffffffffffffffffffffff16815260200190815260200160002060008373ffffffffffffffffffffffffffffffffffffffff1673ffffffffffffffffffffffffffffffffffffffff16815260200190815260200160002060009054906101000a900460ff16905092915050565b610983610ddc565b600073ffffffffffffffffffffffffffffffffffffffff168173ffffffffffffffffffffffffffffffffffffffff16036109f55760006040517f1e4fbdf70000000000000000000000000000000000000000000000000000000081526004016109ec9190611c5b565b60405180910390fd5b6109fe81610e63565b50565b60007f80ac58cd000000000000000000000000000000000000000000000000000000007bffffffffffffffffffffffffffffffffffffffffffffffffffffffff1916827bffffffffffffffffffffffffffffffffffffffffffffffffffffffff19161480610acc57507f5b5e139f000000000000000000000000000000000000000000000000000000007bffffffffffffffffffffffffffffffffffffffffffffffffffffffff1916827bffffffffffffffffffffffffffffffffffffffffffffffffffffffff1916145b80610adc5750610adb82611424565b5b9050919050565b600080610aef8361148e565b9050600073ffffffffffffffffffffffffffffffffffffffff168173ffffffffffffffffffffffffffffffffffffffff1603610b6257826040517f7e273289000000000000000000000000000000000000000000000000000000008152600401610b599190611d71565b60405180910390fd5b80915050919050565b60006004600083815260200190815260200160002060009054906101000a900473ffffffffffffffffffffffffffffffffffffffff169050919050565b600033905090565b610bbd83838360016114cb565b505050565b600080610bce8461148e565b9050600073ffffffffffffffffffffffffffffffffffffffff168373ffffffffffffffffffffffffffffffffffffffff1614610c1057610c0f818486611690565b5b600073ffffffffffffffffffffffffffffffffffffffff168173ffffffffffffffffffffffffffffffffffffffff1614610ca157610c526000856000806114cb565b6001600360008373ffffffffffffffffffffffffffffffffffffffff1673ffffffffffffffffffffffffffffffffffffffff168152602001908152602001600020600082825403925050819055505b600073ffffffffffffffffffffffffffffffffffffffff168573ffffffffffffffffffffffffffffffffffffffff1614610d24576001600360008773ffffffffffffffffffffffffffffffffffffffff1673ffffffffffffffffffffffffffffffffffffffff168152602001908152602001600020600082825401925050819055505b846002600086815260200190815260200160002060006101000a81548173ffffffffffffffffffffffffffffffffffffffff021916908373ffffffffffffffffffffffffffffffffffffffff160217905550838573ffffffffffffffffffffffffffffffffffffffff168273ffffffffffffffffffffffffffffffffffffffff167fddf252ad1be2c89b69c2b068fc378daa952ba7f163c4a11628f55a4df523b3ef60405160405180910390a4809150509392505050565b610de4610ba8565b73ffffffffffffffffffffffffffffffffffffffff16610e0261067f565b73ffffffffffffffffffffffffffffffffffffffff1614610e6157610e25610ba8565b6040517f118cdaa7000000000000000000000000000000000000000000000000000000008152600401610e589190611c5b565b60405180910390fd5b565b6000600760009054906101000a900473ffffffffffffffffffffffffffffffffffffffff16905081600760006101000a81548173ffffffffffffffffffffffffffffffffffffffff021916908373ffffffffffffffffffffffffffffffffffffffff1602179055508173ffffffffffffffffffffffffffffffffffffffff168173ffffffffffffffffffffffffffffffffffffffff167f8be0079c531659141344cd1fd0a4f28419497f9722a3daafe3b4186f6b6457e060405160405180910390a35050565b600073ffffffffffffffffffffffffffffffffffffffff168273ffffffffffffffffffffffffffffffffffffffff1603610f9a57816040517f5b08ba18000000000000000000000000000000000000000000000000000000008152600401610f919190611c5b565b60405180910390fd5b80600560008573ffffffffffffffffffffffffffffffffffffffff1673ffffffffffffffffffffffffffffffffffffffff16815260200190815260200160002060008473ffffffffffffffffffffffffffffffffffffffff1673ffffffffffffffffffffffffffffffffffffffff16815260200190815260200160002060006101000a81548160ff0219169083151502179055508173ffffffffffffffffffffffffffffffffffffffff168373ffffffffffffffffffffffffffffffffffffffff167f17307eab39ab6107e8899845ad3d59bd9653f200f220920489ca2b5937696c318360405161108b9190611aea565b60405180910390a3505050565b60008373ffffffffffffffffffffffffffffffffffffffff163b1115611249578273ffffffffffffffffffffffffffffffffffffffff1663150b7a026110dc610ba8565b8685856040518563ffffffff1660e01b81526004016110fe9493929190612210565b6020604051808303816000875af192505050801561113a57506040513d601f19601f820116820180604052508101906111379190612271565b60015b6111be573d806000811461116a576040519150601f19603f3d011682016040523d82523d6000602084013e61116f565b606091505b5060008151036111b657836040517f64a0ae920000000000000000000000000000000000000000000000000000000081526004016111ad9190611c5b565b60405180910390fd5b805181602001fd5b63150b7a0260e01b7bffffffffffffffffffffffffffffffffffffffffffffffffffffffff1916817bffffffffffffffffffffffffffffffffffffffffffffffffffffffff19161461124757836040517f64a0ae9200000000000000000000000000000000000000000000000000000000815260040161123e9190611c5b565b60405180910390fd5b505b50505050565b606060405180602001604052806000815250905090565b606061127182610ae3565b50600061127c61124f565b9050600081511161129c57604051806020016040528060008152506112c7565b806112a684611754565b6040516020016112b7929190612197565b6040516020818303038152906040525b915050919050565b600073ffffffffffffffffffffffffffffffffffffffff168273ffffffffffffffffffffffffffffffffffffffff16036113415760006040517f64a0ae920000000000000000000000000000000000000000000000000000000081526004016113389190611c5b565b60405180910390fd5b600061134f83836000610bc2565b9050600073ffffffffffffffffffffffffffffffffffffffff168173ffffffffffffffffffffffffffffffffffffffff16146113c35760006040517f73c6ac6e0000000000000000000000000000000000000000000000000000000081526004016113ba9190611c5b565b60405180910390fd5b505050565b806006600084815260200190815260200160002090816113e8919061244a565b507ff8e1a15aba9398e019f0b49df1a4fde98ee17ae345cb5f6b5e2c27f5033e8ce7826040516114189190611d71565b60405180910390a15050565b60007f01ffc9a7000000000000000000000000000000000000000000000000000000007bffffffffffffffffffffffffffffffffffffffffffffffffffffffff1916827bffffffffffffffffffffffffffffffffffffffffffffffffffffffff1916149050919050565b60006002600083815260200190815260200160002060009054906101000a900473ffffffffffffffffffffffffffffffffffffffff169050919050565b80806115045750600073ffffffffffffffffffffffffffffffffffffffff168273ffffffffffffffffffffffffffffffffffffffff1614155b1561163857600061151484610ae3565b9050600073ffffffffffffffffffffffffffffffffffffffff168373ffffffffffffffffffffffffffffffffffffffff161415801561157f57508273ffffffffffffffffffffffffffffffffffffffff168173ffffffffffffffffffffffffffffffffffffffff1614155b8015611592575061159081846108e7565b155b156115d457826040517fa9fbf51f0000000000000000000000000000000000000000000000000000000081526004016115cb9190611c5b565b60405180910390fd5b811561163657838573ffffffffffffffffffffffffffffffffffffffff168273ffffffffffffffffffffffffffffffffffffffff167f8c5be1e5ebec7d5bd14f71427d1e84f3dd0314c0f7b2291e5b200ac8c7c3b92560405160405180910390a45b505b836004600085815260200190815260200160002060006101000a81548173ffffffffffffffffffffffffffffffffffffffff021916908373ffffffffffffffffffffffffffffffffffffffff16021790555050505050565b61169b838383611822565b61174f57600073ffffffffffffffffffffffffffffffffffffffff168373ffffffffffffffffffffffffffffffffffffffff160361171057806040517f7e2732890000000000000000000000000000000000000000000000000000000081526004016117079190611d71565b60405180910390fd5b81816040517f177e802f00000000000000000000000000000000000000000000000000000000815260040161174692919061251c565b60405180910390fd5b505050565b606060006001611763846118e3565b01905060008167ffffffffffffffff81111561178257611781611e02565b5b6040519080825280601f01601f1916602001820160405280156117b45781602001600182028036833780820191505090505b509050600082602001820190505b600115611817578080600190039150507f3031323334353637383961626364656600000000000000000000000000000000600a86061a8153600a858161180b5761180a612545565b5b049450600085036117c2575b819350505050919050565b60008073ffffffffffffffffffffffffffffffffffffffff168373ffffffffffffffffffffffffffffffffffffffff16141580156118da57508273ffffffffffffffffffffffffffffffffffffffff168473ffffffffffffffffffffffffffffffffffffffff16148061189b575061189a84846108e7565b5b806118d957508273ffffffffffffffffffffffffffffffffffffffff166118c183610b6b565b73ffffffffffffffffffffffffffffffffffffffff16145b5b90509392505050565b600080600090507a184f03e93ff9f4daa797ed6e38ed64bf6a1f0100000000000000008310611941577a184f03e93ff9f4daa797ed6e38ed64bf6a1f010000000000000000838161193757611936612545565b5b0492506040810190505b6d04ee2d6d415b85acef8100000000831061197e576d04ee2d6d415b85acef8100000000838161197457611973612545565b5b0492506020810190505b662386f26fc1000083106119ad57662386f26fc1000083816119a3576119a2612545565b5b0492506010810190505b6305f5e10083106119d6576305f5e10083816119cc576119cb612545565b5b0492506008810190505b61271083106119fb5761271083816119f1576119f0612545565b5b0492506004810190505b60648310611a1e5760648381611a1457611a13612545565b5b0492506002810190505b600a8310611a2d576001810190505b80915050919050565b6000604051905090565b600080fd5b600080fd5b60007fffffffff0000000000000000000000000000000000000000000000000000000082169050919050565b611a7f81611a4a565b8114611a8a57600080fd5b50565b600081359050611a9c81611a76565b92915050565b600060208284031215611ab857611ab7611a40565b5b6000611ac684828501611a8d565b91505092915050565b60008115159050919050565b611ae481611acf565b82525050565b6000602082019050611aff6000830184611adb565b92915050565b600081519050919050565b600082825260208201905092915050565b60005b83811015611b3f578082015181840152602081019050611b24565b60008484015250505050565b6000601f19601f8301169050919050565b6000611b6782611b05565b611b718185611b10565b9350611b81818560208601611b21565b611b8a81611b4b565b840191505092915050565b60006020820190508181036000830152611baf8184611b5c565b905092915050565b6000819050919050565b611bca81611bb7565b8114611bd557600080fd5b50565b600081359050611be781611bc1565b92915050565b600060208284031215611c0357611c02611a40565b5b6000611c1184828501611bd8565b91505092915050565b600073ffffffffffffffffffffffffffffffffffffffff82169050919050565b6000611c4582611c1a565b9050919050565b611c5581611c3a565b82525050565b6000602082019050611c706000830184611c4c565b92915050565b611c7f81611c3a565b8114611c8a57600080fd5b50565b600081359050611c9c81611c76565b92915050565b60008060408385031215611cb957611cb8611a40565b5b6000611cc785828601611c8d565b9250506020611cd885828601611bd8565b9150509250929050565b600080600060608486031215611cfb57611cfa611a40565b5b6000611d0986828701611c8d565b9350506020611d1a86828701611c8d565b9250506040611d2b86828701611bd8565b9150509250925092565b600060208284031215611d4b57611d4a611a40565b5b6000611d5984828501611c8d565b91505092915050565b611d6b81611bb7565b82525050565b6000602082019050611d866000830184611d62565b92915050565b611d9581611acf565b8114611da057600080fd5b50565b600081359050611db281611d8c565b92915050565b60008060408385031215611dcf57611dce611a40565b5b6000611ddd85828601611c8d565b9250506020611dee85828601611da3565b9150509250929050565b600080fd5b600080fd5b7f4e487b7100000000000000000000000000000000000000000000000000000000600052604160045260246000fd5b611e3a82611b4b565b810181811067ffffffffffffffff82111715611e5957611e58611e02565b5b80604052505050565b6000611e6c611a36565b9050611e788282611e31565b919050565b600067ffffffffffffffff821115611e9857611e97611e02565b5b611ea182611b4b565b9050602081019050919050565b82818337600083830152505050565b6000611ed0611ecb84611e7d565b611e62565b905082815260208101848484011115611eec57611eeb611dfd565b5b611ef7848285611eae565b509392505050565b600082601f830112611f1457611f13611df8565b5b8135611f24848260208601611ebd565b91505092915050565b60008060008060808587031215611f4757611f46611a40565b5b6000611f5587828801611c8d565b9450506020611f6687828801611c8d565b9350506040611f7787828801611bd8565b925050606085013567ffffffffffffffff811115611f9857611f97611a45565b5b611fa487828801611eff565b91505092959194509250565b600080fd5b600080fd5b60008083601f840112611fd057611fcf611df8565b5b8235905067ffffffffffffffff811115611fed57611fec611fb0565b5b60208301915083600182028301111561200957612008611fb5565b5b9250929050565b6000806000806060858703121561202a57612029611a40565b5b600061203887828801611c8d565b945050602061204987828801611bd8565b935050604085013567ffffffffffffffff81111561206a57612069611a45565b5b61207687828801611fba565b925092505092959194509250565b6000806040838503121561209b5761209a611a40565b5b60006120a985828601611c8d565b92505060206120ba85828601611c8d565b9150509250929050565b7f4e487b7100000000000000000000000000000000000000000000000000000000600052602260045260246000fd5b6000600282049050600182168061210b57607f821691505b60208210810361211e5761211d6120c4565b5b50919050565b60006060820190506121396000830186611c4c565b6121466020830185611d62565b6121536040830184611c4c565b949350505050565b600081905092915050565b600061217182611b05565b61217b818561215b565b935061218b818560208601611b21565b80840191505092915050565b60006121a38285612166565b91506121af8284612166565b91508190509392505050565b600081519050919050565b600082825260208201905092915050565b60006121e2826121bb565b6121ec81856121c6565b93506121fc818560208601611b21565b61220581611b4b565b840191505092915050565b60006080820190506122256000830187611c4c565b6122326020830186611c4c565b61223f6040830185611d62565b818103606083015261225181846121d7565b905095945050505050565b60008151905061226b81611a76565b92915050565b60006020828403121561228757612286611a40565b5b60006122958482850161225c565b91505092915050565b60008190508160005260206000209050919050565b60006020601f8301049050919050565b600082821b905092915050565b6000600883026123007fffffffffffffffffffffffffffffffffffffffffffffffffffffffffffffffff826122c3565b61230a86836122c3565b95508019841693508086168417925050509392505050565b6000819050919050565b600061234761234261233d84611bb7565b612322565b611bb7565b9050919050565b6000819050919050565b6123618361232c565b61237561236d8261234e565b8484546122d0565b825550505050565b600090565b61238a61237d565b612395818484612358565b505050565b5b818110156123b9576123ae600082612382565b60018101905061239b565b5050565b601f8211156123fe576123cf8161229e565b6123d8846122b3565b810160208510156123e7578190505b6123fb6123f3856122b3565b83018261239a565b50505b505050565b600082821c905092915050565b600061242160001984600802612403565b1980831691505092915050565b600061243a8383612410565b9150826002028217905092915050565b61245382611b05565b67ffffffffffffffff81111561246c5761246b611e02565b5b61247682546120f3565b6124818282856123bd565b600060209050601f8311600181146124b457600084156124a2578287015190505b6124ac858261242e565b865550612514565b601f1984166124c28661229e565b60005b828110156124ea578489015182556001820191506020850194506020810190506124c5565b868310156125075784890151612503601f891682612410565b8355505b6001600288020188555050505b505050505050565b60006040820190506125316000830185611c4c565b61253e6020830184611d62565b9392505050565b7f4e487b7100000000000000000000000000000000000000000000000000000000600052601260045260246000fdfea26469706673582212203d18d52d46eb29db361defbdc6e7f8201e226db6331102032430ec2a029e2fd364736f6c63430008140033",
  "linkReferences": {},
  "deployedLinkReferences": {}
}